{
  "contractName": "ApprovalContract",
  "abi": [
    {
      "constant": true,
      "inputs": [],
      "name": "songPrice",
      "outputs": [
        {
          "name": "",
          "type": "uint256"
        }
      ],
      "payable": false,
      "stateMutability": "view",
      "type": "function"
    },
    {
      "constant": false,
      "inputs": [
        {
          "name": "songAddress",
          "type": "address"
        }
      ],
      "name": "buy",
      "outputs": [
        {
          "name": "",
          "type": "bool"
        }
      ],
      "payable": true,
      "stateMutability": "payable",
      "type": "function"
    },
    {
      "constant": true,
      "inputs": [],
      "name": "viewSongPrice",
      "outputs": [
        {
          "name": "",
          "type": "uint256"
        }
      ],
      "payable": false,
      "stateMutability": "pure",
      "type": "function"
    },
    {
      "constant": true,
      "inputs": [],
      "name": "checkSongBalance",
      "outputs": [
        {
          "name": "",
          "type": "uint256"
        }
      ],
      "payable": false,
      "stateMutability": "view",
      "type": "function"
    },
    {
      "constant": true,
      "inputs": [],
      "name": "isListener",
      "outputs": [
        {
          "name": "",
          "type": "bool"
        }
      ],
      "payable": false,
      "stateMutability": "view",
      "type": "function"
    },
    {
      "constant": false,
      "inputs": [],
      "name": "withdraw",
      "outputs": [],
      "payable": false,
      "stateMutability": "nonpayable",
      "type": "function"
    }
  ],
  "bytecode": "0x608060405234801561001057600080fd5b5061065d806100206000396000f3fe608060405260043610610078576000357c0100000000000000000000000000000000000000000000000000000000900463ffffffff1680630274d4f31461007d5780633ccfd60b146100a857806397712a71146100bf578063cdd3fd7a146100ee578063e2a941d414610119578063f088d54714610144575b600080fd5b34801561008957600080fd5b506100926101a0565b6040518082815260200191505060405180910390f35b3480156100b457600080fd5b506100bd6101ab565b005b3480156100cb57600080fd5b506100d461032c565b604051808215151515815260200191505060405180910390f35b3480156100fa57600080fd5b5061010361041c565b6040518082815260200191505060405180910390f35b34801561012557600080fd5b5061012e610563565b6040518082815260200191505060405180910390f35b6101866004803603602081101561015a57600080fd5b81019080803573ffffffffffffffffffffffffffffffffffffffff169060200190929190505050610572565b604051808215151515815260200191505060405180910390f35b661c6bf52634000081565b60008060003373ffffffffffffffffffffffffffffffffffffffff1673ffffffffffffffffffffffffffffffffffffffff16815260200190815260200160002054111515610261576040517f08c379a000000000000000000000000000000000000000000000000000000000815260040180806020018281038252601c8152602001807f5468657265206973206e6f7468696e6720746f2077697468647261770000000081525060200191505060405180910390fd5b3373ffffffffffffffffffffffffffffffffffffffff166108fc6000803373ffffffffffffffffffffffffffffffffffffffff1673ffffffffffffffffffffffffffffffffffffffff168152602001908152602001600020549081150290604051600060405180830381858888f193505050501580156102e5573d6000803e3d6000fd5b5060008060003373ffffffffffffffffffffffffffffffffffffffff1673ffffffffffffffffffffffffffffffffffffffff16815260200190815260200160002081905550565b6000600160003373ffffffffffffffffffffffffffffffffffffffff1673ffffffffffffffffffffffffffffffffffffffff16815260200190815260200160002060009054906101000a900460ff161515610415576040517f08c379a00000000000000000000000000000000000000000000000000000000081526004018080602001828103825260228152602001807f596f752068617665206e6f7420626f75676874207468697320736f6e6720796581526020017f742e00000000000000000000000000000000000000000000000000000000000081525060400191505060405180910390fd5b6001905090565b6000806000803373ffffffffffffffffffffffffffffffffffffffff1673ffffffffffffffffffffffffffffffffffffffff1681526020019081526020016000205411151561051f576040517f08c379a00000000000000000000000000000000000000000000000000000000081526004018080602001828103825260498152602001807f796f752061726520656974686572206e6f7420617574686f72697a656420746f81526020017f2073656520746869732062616c616e6365206f72207468652062616c616e636581526020017f206973207a65726f2e000000000000000000000000000000000000000000000081525060600191505060405180910390fd5b6000803373ffffffffffffffffffffffffffffffffffffffff1673ffffffffffffffffffffffffffffffffffffffff16815260200190815260200160002054905090565b6000661c6bf526340000905090565b6000661c6bf5263400003414151561058957600080fd5b346000808473ffffffffffffffffffffffffffffffffffffffff1673ffffffffffffffffffffffffffffffffffffffff1681526020019081526020016000206000828254019250508190555060018060003373ffffffffffffffffffffffffffffffffffffffff1673ffffffffffffffffffffffffffffffffffffffff16815260200190815260200160002060006101000a81548160ff02191690831515021790555091905056fea165627a7a723058201e08a18e9f94a6c1258c39c5ff8d09399aab315f705694406d3cf241d6ab67e00029",
  "source": "pragma solidity ^0.5.0;\r\n\r\ncontract ApprovalContract{\r\n    uint public constant songPrice = 8000000000000000; // approximately 1 dollar represented in wei (1 eth = 10^17 wei)\r\n\r\n    mapping (address => uint) songsPayable;\r\n    mapping (address => bool) authorizedListeners; //People who bought the song\r\n\r\n    function buy(address payable songAddress) public payable returns(bool){\r\n        require(msg.value == songPrice);\r\n        songsPayable[songAddress] += msg.value;\r\n        authorizedListeners[msg.sender] = true;\r\n    }\r\n\r\n    function viewSongPrice() public pure returns(uint){\r\n        return(songPrice);\r\n    }\r\n\r\n    function checkSongBalance() public view returns(uint){\r\n        require(songsPayable[msg.sender] > 0, \"you are either not authorized to see this balance or the balance is zero.\");\r\n        return(songsPayable[msg.sender]);\r\n    }\r\n\r\n    function isListener() public view returns(bool){\r\n        require(authorizedListeners[msg.sender], \"You have not bought this song yet.\");\r\n        return true;\r\n    }\r\n\r\n    function withdraw() public {\r\n        require(songsPayable[msg.sender] > 0, \"There is nothing to withdraw\");\r\n        msg.sender.transfer(songsPayable[msg.sender]);\r\n        songsPayable[msg.sender] = 0;\r\n    }\r\n}",
  "sourcePath": "C:/Users/Lopi's Acer/Documents/NYU/Academics/Senior/Agile Software/music-through-blockchain/bcContracts/contracts/songSale.sol",
  "compiler": {
    "name": "solc",
    "version": "0.5.0+commit.1d4f565a.Emscripten.clang"
  },
  "schemaVersion": "3.0.2",
  "updatedAt": "2019-03-04T19:18:36.417Z",
  "devdoc": {
    "methods": {}
  },
  "userdoc": {
    "methods": {}
  }
}