{
  "contractName": "SongsContract",
  "abi": [
    {
      "constant": true,
      "inputs": [],
      "name": "songPrice",
      "outputs": [
        {
          "name": "",
          "type": "uint256"
        }
      ],
      "payable": false,
      "stateMutability": "view",
      "type": "function"
    },
    {
      "constant": true,
      "inputs": [
        {
          "name": "",
          "type": "address"
        }
      ],
      "name": "royaltiesPayable",
      "outputs": [
        {
          "name": "",
          "type": "uint256"
        }
      ],
      "payable": false,
      "stateMutability": "view",
      "type": "function"
    },
    {
      "constant": true,
      "inputs": [
        {
          "name": "",
          "type": "address"
        }
      ],
      "name": "songs",
      "outputs": [
        {
          "name": "balance",
          "type": "uint256"
        },
        {
          "name": "creator",
          "type": "address"
        },
        {
          "name": "ownersSize",
          "type": "uint256"
        }
      ],
      "payable": false,
      "stateMutability": "view",
      "type": "function"
    },
    {
      "constant": true,
      "inputs": [],
      "name": "MAX_ROYALTY_POINTS",
      "outputs": [
        {
          "name": "",
          "type": "uint16"
        }
      ],
      "payable": false,
      "stateMutability": "view",
      "type": "function"
    },
    {
      "constant": true,
      "inputs": [
        {
          "name": "",
          "type": "address"
        }
      ],
      "name": "authorizedListeners",
      "outputs": [
        {
          "name": "",
          "type": "bool"
        }
      ],
      "payable": false,
      "stateMutability": "view",
      "type": "function"
    },
    {
      "constant": false,
      "inputs": [
        {
          "name": "songAddress",
          "type": "address"
        }
      ],
      "name": "registerSong",
      "outputs": [
        {
          "name": "success",
          "type": "bool"
        }
      ],
      "payable": false,
      "stateMutability": "nonpayable",
      "type": "function"
    },
    {
      "constant": false,
      "inputs": [
        {
          "name": "songAddress",
          "type": "address"
        }
      ],
      "name": "buy",
      "outputs": [
        {
          "name": "success",
          "type": "bool"
        }
      ],
      "payable": true,
      "stateMutability": "payable",
      "type": "function"
    },
    {
      "constant": false,
      "inputs": [
        {
          "name": "songAddress",
          "type": "address"
        },
        {
          "name": "royalties",
          "type": "uint16"
        },
        {
          "name": "newPricePerRoyaltyPoint",
          "type": "uint256"
        }
      ],
      "name": "sellRoyalties",
      "outputs": [
        {
          "name": "success",
          "type": "bool"
        }
      ],
      "payable": false,
      "stateMutability": "nonpayable",
      "type": "function"
    },
    {
      "constant": false,
      "inputs": [
        {
          "name": "songAddress",
          "type": "address"
        },
        {
          "name": "royalties",
          "type": "uint16"
        }
      ],
      "name": "withdrawOffer",
      "outputs": [
        {
          "name": "success",
          "type": "bool"
        }
      ],
      "payable": false,
      "stateMutability": "nonpayable",
      "type": "function"
    },
    {
      "constant": false,
      "inputs": [
        {
          "name": "songAddress",
          "type": "address"
        },
        {
          "name": "seller",
          "type": "address"
        }
      ],
      "name": "buyRoyalties",
      "outputs": [
        {
          "name": "success",
          "type": "bool"
        }
      ],
      "payable": true,
      "stateMutability": "payable",
      "type": "function"
    },
    {
      "constant": true,
      "inputs": [],
      "name": "viewSongPrice",
      "outputs": [
        {
          "name": "",
          "type": "uint256"
        }
      ],
      "payable": false,
      "stateMutability": "pure",
      "type": "function"
    },
    {
      "constant": true,
      "inputs": [],
      "name": "viewMaxRoyaltyPoints",
      "outputs": [
        {
          "name": "",
          "type": "uint16"
        }
      ],
      "payable": false,
      "stateMutability": "pure",
      "type": "function"
    },
    {
      "constant": true,
      "inputs": [
        {
          "name": "songAddress",
          "type": "address"
        }
      ],
      "name": "checkRoyaltyPoints",
      "outputs": [
        {
          "name": "",
          "type": "uint16"
        }
      ],
      "payable": false,
      "stateMutability": "view",
      "type": "function"
    },
    {
      "constant": true,
      "inputs": [
        {
          "name": "songAddress",
          "type": "address"
        },
        {
          "name": "owner",
          "type": "address"
        }
      ],
      "name": "viewRoyaltyPointsOffered",
      "outputs": [
        {
          "name": "",
          "type": "uint16"
        }
      ],
      "payable": false,
      "stateMutability": "view",
      "type": "function"
    },
    {
      "constant": true,
      "inputs": [
        {
          "name": "songAddress",
          "type": "address"
        },
        {
          "name": "owner",
          "type": "address"
        }
      ],
      "name": "viewRoyaltyOfferedPrice",
      "outputs": [
        {
          "name": "",
          "type": "uint256"
        }
      ],
      "payable": false,
      "stateMutability": "view",
      "type": "function"
    },
    {
      "constant": true,
      "inputs": [
        {
          "name": "songAddress",
          "type": "address"
        }
      ],
      "name": "checkOwnership",
      "outputs": [
        {
          "name": "",
          "type": "bool"
        }
      ],
      "payable": false,
      "stateMutability": "view",
      "type": "function"
    },
    {
      "constant": true,
      "inputs": [
        {
          "name": "songAddress",
          "type": "address"
        }
      ],
      "name": "isSongRegistered",
      "outputs": [
        {
          "name": "",
          "type": "bool"
        }
      ],
      "payable": false,
      "stateMutability": "view",
      "type": "function"
    },
    {
      "constant": true,
      "inputs": [
        {
          "name": "songAddress",
          "type": "address"
        }
      ],
      "name": "checkSongBalance",
      "outputs": [
        {
          "name": "",
          "type": "uint256"
        }
      ],
      "payable": false,
      "stateMutability": "view",
      "type": "function"
    },
    {
      "constant": true,
      "inputs": [],
      "name": "isListener",
      "outputs": [
        {
          "name": "",
          "type": "bool"
        }
      ],
      "payable": false,
      "stateMutability": "view",
      "type": "function"
    },
    {
      "constant": false,
      "inputs": [
        {
          "name": "songAddress",
          "type": "address"
        }
      ],
      "name": "withdraw",
      "outputs": [],
      "payable": false,
      "stateMutability": "nonpayable",
      "type": "function"
    }
  ],
  "bytecode": "0x608060405234801561001057600080fd5b50612c68806100206000396000f3fe608060405260043610610112576000357c0100000000000000000000000000000000000000000000000000000000900463ffffffff1680630274d4f3146101175780630c8b234e146101425780630cbba9a3146101ab57806325ce950b1461023857806333c4e11a146102a15780633b6fdd9c146102d457806347a7da911461033957806351cff8d9146103b057806365528faf146104015780636a4db6e51461046a5780637c20f5cd14610509578063864380cf1461058e57806396ca53b4146105c157806397712a7114610626578063b6e33d8c14610655578063c46250d9146106be578063d25b53e01461072b578063e2a941d4146107a7578063efd9eff0146107d2578063f088d54714610853575b600080fd5b34801561012357600080fd5b5061012c6108af565b6040518082815260200191505060405180910390f35b34801561014e57600080fd5b506101916004803603602081101561016557600080fd5b81019080803573ffffffffffffffffffffffffffffffffffffffff1690602001909291905050506108ba565b604051808215151515815260200191505060405180910390f35b3480156101b757600080fd5b5061021a600480360360408110156101ce57600080fd5b81019080803573ffffffffffffffffffffffffffffffffffffffff169060200190929190803573ffffffffffffffffffffffffffffffffffffffff169060200190929190505050610a21565b604051808261ffff1661ffff16815260200191505060405180910390f35b34801561024457600080fd5b506102876004803603602081101561025b57600080fd5b81019080803573ffffffffffffffffffffffffffffffffffffffff169060200190929190505050610b5f565b604051808215151515815260200191505060405180910390f35b3480156102ad57600080fd5b506102b6610bbd565b604051808261ffff1661ffff16815260200191505060405180910390f35b3480156102e057600080fd5b50610323600480360360208110156102f757600080fd5b81019080803573ffffffffffffffffffffffffffffffffffffffff169060200190929190505050610bc7565b6040518082815260200191505060405180910390f35b34801561034557600080fd5b506103966004803603604081101561035c57600080fd5b81019080803573ffffffffffffffffffffffffffffffffffffffff169060200190929190803561ffff169060200190929190505050610bdf565b604051808215151515815260200191505060405180910390f35b3480156103bc57600080fd5b506103ff600480360360208110156103d357600080fd5b81019080803573ffffffffffffffffffffffffffffffffffffffff169060200190929190505050610fb1565b005b34801561040d57600080fd5b506104506004803603602081101561042457600080fd5b81019080803573ffffffffffffffffffffffffffffffffffffffff16906020019092919050505061152f565b604051808215151515815260200191505060405180910390f35b34801561047657600080fd5b506104b96004803603602081101561048d57600080fd5b81019080803573ffffffffffffffffffffffffffffffffffffffff16906020019092919050505061184c565b604051808481526020018373ffffffffffffffffffffffffffffffffffffffff1673ffffffffffffffffffffffffffffffffffffffff168152602001828152602001935050505060405180910390f35b34801561051557600080fd5b506105786004803603604081101561052c57600080fd5b81019080803573ffffffffffffffffffffffffffffffffffffffff169060200190929190803573ffffffffffffffffffffffffffffffffffffffff169060200190929190505050611896565b6040518082815260200191505060405180910390f35b34801561059a57600080fd5b506105a3611a61565b604051808261ffff1661ffff16815260200191505060405180910390f35b3480156105cd57600080fd5b50610610600480360360208110156105e457600080fd5b81019080803573ffffffffffffffffffffffffffffffffffffffff169060200190929190505050611a67565b6040518082815260200191505060405180910390f35b34801561063257600080fd5b5061063b611bad565b604051808215151515815260200191505060405180910390f35b34801561066157600080fd5b506106a46004803603602081101561067857600080fd5b81019080803573ffffffffffffffffffffffffffffffffffffffff169060200190929190505050611c12565b604051808215151515815260200191505060405180910390f35b3480156106ca57600080fd5b5061070d600480360360208110156106e157600080fd5b81019080803573ffffffffffffffffffffffffffffffffffffffff169060200190929190505050611c32565b604051808261ffff1661ffff16815260200191505060405180910390f35b61078d6004803603604081101561074157600080fd5b81019080803573ffffffffffffffffffffffffffffffffffffffff169060200190929190803573ffffffffffffffffffffffffffffffffffffffff169060200190929190505050611d6f565b604051808215151515815260200191505060405180910390f35b3480156107b357600080fd5b506107bc6121bd565b6040518082815260200191505060405180910390f35b3480156107de57600080fd5b50610839600480360360608110156107f557600080fd5b81019080803573ffffffffffffffffffffffffffffffffffffffff169060200190929190803561ffff169060200190929190803590602001909291905050506121cc565b604051808215151515815260200191505060405180910390f35b6108956004803603602081101561086957600080fd5b81019080803573ffffffffffffffffffffffffffffffffffffffff169060200190929190505050612590565b604051808215151515815260200191505060405180910390f35b661c6bf52634000081565b60006108c582610b5f565b1515610939576040517f08c379a000000000000000000000000000000000000000000000000000000000815260040180806020018281038252601a8152602001807f54686520736f6e67206973206e6f74207265676973746572656400000000000081525060200191505060405180910390fd5b3373ffffffffffffffffffffffffffffffffffffffff166000808473ffffffffffffffffffffffffffffffffffffffff1673ffffffffffffffffffffffffffffffffffffffff16815260200190815260200160002060030160003373ffffffffffffffffffffffffffffffffffffffff1673ffffffffffffffffffffffffffffffffffffffff16815260200190815260200160002060000160009054906101000a900473ffffffffffffffffffffffffffffffffffffffff1673ffffffffffffffffffffffffffffffffffffffff161415610a175760019050610a1c565b600090505b919050565b6000610a2d83836126d3565b1515610ac7576040517f08c379a00000000000000000000000000000000000000000000000000000000081526004018080602001828103825260218152602001807f54686973206973206e6f7420616e206f776e6572206f662074686520736f6e6781526020017f2e0000000000000000000000000000000000000000000000000000000000000081525060400191505060405180910390fd5b6000808473ffffffffffffffffffffffffffffffffffffffff1673ffffffffffffffffffffffffffffffffffffffff16815260200190815260200160002060030160008373ffffffffffffffffffffffffffffffffffffffff1673ffffffffffffffffffffffffffffffffffffffff16815260200190815260200160002060000160169054906101000a900461ffff16905092915050565b6000806000808473ffffffffffffffffffffffffffffffffffffffff1673ffffffffffffffffffffffffffffffffffffffff168152602001908152602001600020600201541115610bb35760019050610bb8565b600090505b919050565b6000612710905090565b60026020528060005260406000206000915090505481565b6000610beb83336126d3565b1515610c5f576040517f08c379a00000000000000000000000000000000000000000000000000000000081526004018080602001828103825260208152602001807f54686973206973206e6f7420616e206f776e6572206f662074686520736f6e6781525060200191505060405180910390fd5b610c67610bbd565b61ffff168261ffff1611151515610d0c576040517f08c379a00000000000000000000000000000000000000000000000000000000081526004018080602001828103825260388152602001807f596f752063616e2774207769746864726177206d6f726520726f79616c74696581526020017f73207468616e20746865206578697374696e67206f6e6573000000000000000081525060400191505060405180910390fd5b6000610d18843361283b565b90508061ffff168361ffff1611151515610dc0576040517f08c379a00000000000000000000000000000000000000000000000000000000081526004018080602001828103825260338152602001807f596f752063616e2774207769746864726177206d6f726520726f79616c74696581526020017f73207468616e207768617420796f75206f776e0000000000000000000000000081525060400191505060405180910390fd5b8061ffff16836000808773ffffffffffffffffffffffffffffffffffffffff1673ffffffffffffffffffffffffffffffffffffffff16815260200190815260200160002060030160003373ffffffffffffffffffffffffffffffffffffffff1673ffffffffffffffffffffffffffffffffffffffff16815260200190815260200160002060000160169054906101000a900461ffff160161ffff1611151515610ef7576040517f08c379a00000000000000000000000000000000000000000000000000000000081526004018080602001828103825260378152602001807f596f752063616e2774207769746864726177206d6f726520726f79616c74696581526020017f73207468616e207768617420796f75206f66666572656400000000000000000081525060400191505060405180910390fd5b826000808673ffffffffffffffffffffffffffffffffffffffff1673ffffffffffffffffffffffffffffffffffffffff16815260200190815260200160002060030160003373ffffffffffffffffffffffffffffffffffffffff1673ffffffffffffffffffffffffffffffffffffffff16815260200190815260200160002060000160168282829054906101000a900461ffff160392506101000a81548161ffff021916908361ffff160217905550600191505092915050565b610fba81610b5f565b151561102e576040517f08c379a000000000000000000000000000000000000000000000000000000000815260040180806020018281038252601a8152602001807f54686520736f6e67206973206e6f74207265676973746572656400000000000081525060200191505060405180910390fd5b61103881336126d3565b15156110d2576040517f08c379a00000000000000000000000000000000000000000000000000000000081526004018080602001828103825260218152602001807f54686973206973206e6f7420616e206f776e6572206f662074686520736f6e6781526020017f2e0000000000000000000000000000000000000000000000000000000000000081525060400191505060405180910390fd5b60008060008373ffffffffffffffffffffffffffffffffffffffff1673ffffffffffffffffffffffffffffffffffffffff16815260200190815260200160002060000154905060008060008473ffffffffffffffffffffffffffffffffffffffff1673ffffffffffffffffffffffffffffffffffffffff168152602001908152602001600020600001541115156111d1576040517f08c379a000000000000000000000000000000000000000000000000000000000815260040180806020018281038252601c8152602001807f5468657265206973206e6f7468696e6720746f2077697468647261770000000081525060200191505060405180910390fd5b61271061ffff166000808473ffffffffffffffffffffffffffffffffffffffff1673ffffffffffffffffffffffffffffffffffffffff16815260200190815260200160002060000154101515156112b6576040517f08c379a000000000000000000000000000000000000000000000000000000000815260040180806020018281038252603a8152602001807f5468652063757272656e7420736f6e6727732062616c616e636520697320746f81526020017f6f206c6f7720746f206d616b652061207769746864726177616c00000000000081525060400191505060405180910390fd5b6112be612bbd565b6000808473ffffffffffffffffffffffffffffffffffffffff1673ffffffffffffffffffffffffffffffffffffffff16815260200190815260200160002060030160003373ffffffffffffffffffffffffffffffffffffffff1673ffffffffffffffffffffffffffffffffffffffff168152602001908152602001600020608060405190810160405290816000820160009054906101000a900473ffffffffffffffffffffffffffffffffffffffff1673ffffffffffffffffffffffffffffffffffffffff1673ffffffffffffffffffffffffffffffffffffffff1681526020016000820160149054906101000a900461ffff1661ffff1661ffff1681526020016000820160169054906101000a900461ffff1661ffff1661ffff16815260200160018201548152505090506000816020015161ffff1661271061ffff168481151561140657fe5b04029050600260003373ffffffffffffffffffffffffffffffffffffffff1673ffffffffffffffffffffffffffffffffffffffff16815260200190815260200160002054810190503373ffffffffffffffffffffffffffffffffffffffff166108fc829081150290604051600060405180830381858888f19350505050158015611494573d6000803e3d6000fd5b506000600260003373ffffffffffffffffffffffffffffffffffffffff1673ffffffffffffffffffffffffffffffffffffffff16815260200190815260200160002081905550806000808673ffffffffffffffffffffffffffffffffffffffff1673ffffffffffffffffffffffffffffffffffffffff1681526020019081526020016000206000016000828254039250508190555050505050565b600061153a82610b5f565b1515156115af576040517f08c379a000000000000000000000000000000000000000000000000000000000815260040180806020018281038252601e8152602001807f54686520736f6e6720697320616c72656164792072656769737465726564000081525060200191505060405180910390fd5b6115b7612bbd565b6080604051908101604052803373ffffffffffffffffffffffffffffffffffffffff16815260200161271061ffff168152602001600061ffff16815260200160008152509050611605612c04565b606060405190810160405280600081526020013373ffffffffffffffffffffffffffffffffffffffff16815260200160008152509050806000808673ffffffffffffffffffffffffffffffffffffffff1673ffffffffffffffffffffffffffffffffffffffff1681526020019081526020016000206000820151816000015560208201518160010160006101000a81548173ffffffffffffffffffffffffffffffffffffffff021916908373ffffffffffffffffffffffffffffffffffffffff1602179055506040820151816002015590505060016000808673ffffffffffffffffffffffffffffffffffffffff1673ffffffffffffffffffffffffffffffffffffffff16815260200190815260200160002060020160008282540192505081905550816000808673ffffffffffffffffffffffffffffffffffffffff1673ffffffffffffffffffffffffffffffffffffffff16815260200190815260200160002060030160003373ffffffffffffffffffffffffffffffffffffffff1673ffffffffffffffffffffffffffffffffffffffff16815260200190815260200160002060008201518160000160006101000a81548173ffffffffffffffffffffffffffffffffffffffff021916908373ffffffffffffffffffffffffffffffffffffffff16021790555060208201518160000160146101000a81548161ffff021916908361ffff16021790555060408201518160000160166101000a81548161ffff021916908361ffff16021790555060608201518160010155905050600192505050919050565b60006020528060005260406000206000915090508060000154908060010160009054906101000a900473ffffffffffffffffffffffffffffffffffffffff16908060020154905083565b60006118a283836126d3565b151561193c576040517f08c379a00000000000000000000000000000000000000000000000000000000081526004018080602001828103825260218152602001807f54686973206973206e6f7420616e206f776e6572206f662074686520736f6e6781526020017f2e0000000000000000000000000000000000000000000000000000000000000081525060400191505060405180910390fd5b60008060008573ffffffffffffffffffffffffffffffffffffffff1673ffffffffffffffffffffffffffffffffffffffff16815260200190815260200160002060030160008473ffffffffffffffffffffffffffffffffffffffff1673ffffffffffffffffffffffffffffffffffffffff168152602001908152602001600020600101546000808673ffffffffffffffffffffffffffffffffffffffff1673ffffffffffffffffffffffffffffffffffffffff16815260200190815260200160002060030160008573ffffffffffffffffffffffffffffffffffffffff1673ffffffffffffffffffffffffffffffffffffffff16815260200190815260200160002060000160169054906101000a900461ffff1661ffff160290508091505092915050565b61271081565b6000611a7282610b5f565b1515611ae6576040517f08c379a000000000000000000000000000000000000000000000000000000000815260040180806020018281038252601a8152602001807f54686520736f6e67206973206e6f74207265676973746572656400000000000081525060200191505060405180910390fd5b611af082336126d3565b1515611b64576040517f08c379a00000000000000000000000000000000000000000000000000000000081526004018080602001828103825260148152602001807f54686973206973206e6f7420616e206f776e657200000000000000000000000081525060200191505060405180910390fd5b6000808373ffffffffffffffffffffffffffffffffffffffff1673ffffffffffffffffffffffffffffffffffffffff168152602001908152602001600020600001549050919050565b6000600160003373ffffffffffffffffffffffffffffffffffffffff1673ffffffffffffffffffffffffffffffffffffffff16815260200190815260200160002060009054906101000a900460ff1615611c0a5760019050611c0f565b600090505b90565b60016020528060005260406000206000915054906101000a900460ff1681565b6000611c3e82336126d3565b1515611cd8576040517f08c379a00000000000000000000000000000000000000000000000000000000081526004018080602001828103825260218152602001807f54686973206973206e6f7420616e206f776e6572206f662074686520736f6e6781526020017f2e0000000000000000000000000000000000000000000000000000000000000081525060400191505060405180910390fd5b6000808373ffffffffffffffffffffffffffffffffffffffff1673ffffffffffffffffffffffffffffffffffffffff16815260200190815260200160002060030160003373ffffffffffffffffffffffffffffffffffffffff1673ffffffffffffffffffffffffffffffffffffffff16815260200190815260200160002060000160149054906101000a900461ffff169050919050565b6000611d7b83836126d3565b1515611e15576040517f08c379a00000000000000000000000000000000000000000000000000000000081526004018080602001828103825260278152602001807f546861742073656c6c6572206973206e6f7420616e206f776e6572206f66207481526020017f686520736f6e670000000000000000000000000000000000000000000000000081525060400191505060405180910390fd5b6000611e218484611896565b90508034141515611e3157600080fd5b34600260008573ffffffffffffffffffffffffffffffffffffffff1673ffffffffffffffffffffffffffffffffffffffff16815260200190815260200160002060008282540192505081905550611e888433612979565b50611e9384336126d3565b1515611e9b57fe5b60008060008673ffffffffffffffffffffffffffffffffffffffff1673ffffffffffffffffffffffffffffffffffffffff16815260200190815260200160002060030160008573ffffffffffffffffffffffffffffffffffffffff1673ffffffffffffffffffffffffffffffffffffffff16815260200190815260200160002060000160169054906101000a900461ffff169050806000808773ffffffffffffffffffffffffffffffffffffffff1673ffffffffffffffffffffffffffffffffffffffff16815260200190815260200160002060030160003373ffffffffffffffffffffffffffffffffffffffff1673ffffffffffffffffffffffffffffffffffffffff16815260200190815260200160002060000160148282829054906101000a900461ffff160192506101000a81548161ffff021916908361ffff160217905550806000808773ffffffffffffffffffffffffffffffffffffffff1673ffffffffffffffffffffffffffffffffffffffff16815260200190815260200160002060030160008673ffffffffffffffffffffffffffffffffffffffff1673ffffffffffffffffffffffffffffffffffffffff16815260200190815260200160002060000160148282829054906101000a900461ffff160392506101000a81548161ffff021916908361ffff16021790555060008060008773ffffffffffffffffffffffffffffffffffffffff1673ffffffffffffffffffffffffffffffffffffffff16815260200190815260200160002060030160008673ffffffffffffffffffffffffffffffffffffffff1673ffffffffffffffffffffffffffffffffffffffff16815260200190815260200160002060000160166101000a81548161ffff021916908361ffff16021790555060008060008773ffffffffffffffffffffffffffffffffffffffff1673ffffffffffffffffffffffffffffffffffffffff16815260200190815260200160002060030160008673ffffffffffffffffffffffffffffffffffffffff1673ffffffffffffffffffffffffffffffffffffffff1681526020019081526020016000206001018190555060019250505092915050565b6000661c6bf526340000905090565b60006121d884336126d3565b151561224c576040517f08c379a00000000000000000000000000000000000000000000000000000000081526004018080602001828103825260208152602001807f54686973206973206e6f7420616e206f776e6572206f662074686520736f6e6781525060200191505060405180910390fd5b612254610bbd565b61ffff168361ffff16111515156122f9576040517f08c379a00000000000000000000000000000000000000000000000000000000081526004018080602001828103825260348152602001807f596f752063616e27742073656c6c206d6f726520726f79616c7469657320746881526020017f616e20746865206578697374696e67206f6e657300000000000000000000000081525060400191505060405180910390fd5b6000612305853361283b565b90508061ffff168461ffff16111515156123ad576040517f08c379a000000000000000000000000000000000000000000000000000000000815260040180806020018281038252602f8152602001807f596f752063616e27742073656c6c206d6f726520726f79616c7469657320746881526020017f616e207768617420796f75206f776e000000000000000000000000000000000081525060400191505060405180910390fd5b60008461ffff1611151561244f576040517f08c379a000000000000000000000000000000000000000000000000000000000815260040180806020018281038252602b8152602001807f596f75206861766520746f2073656c6c206174206c65617374206f6e6520726f81526020017f79616c747920706f696e7400000000000000000000000000000000000000000081525060400191505060405180910390fd5b836000808773ffffffffffffffffffffffffffffffffffffffff1673ffffffffffffffffffffffffffffffffffffffff16815260200190815260200160002060030160003373ffffffffffffffffffffffffffffffffffffffff1673ffffffffffffffffffffffffffffffffffffffff16815260200190815260200160002060000160168282829054906101000a900461ffff160192506101000a81548161ffff021916908361ffff160217905550826000808773ffffffffffffffffffffffffffffffffffffffff1673ffffffffffffffffffffffffffffffffffffffff16815260200190815260200160002060030160003373ffffffffffffffffffffffffffffffffffffffff1673ffffffffffffffffffffffffffffffffffffffff1681526020019081526020016000206001018190555060019150509392505050565b600061259b82610b5f565b151561260f576040517f08c379a000000000000000000000000000000000000000000000000000000000815260040180806020018281038252601a8152602001807f54686520736f6e67206973206e6f74207265676973746572656400000000000081525060200191505060405180910390fd5b661c6bf5263400003414151561262457600080fd5b346000808473ffffffffffffffffffffffffffffffffffffffff1673ffffffffffffffffffffffffffffffffffffffff1681526020019081526020016000206000016000828254019250508190555060018060003373ffffffffffffffffffffffffffffffffffffffff1673ffffffffffffffffffffffffffffffffffffffff16815260200190815260200160002060006101000a81548160ff02191690831515021790555060019050919050565b60006126de83610b5f565b1515612752576040517f08c379a000000000000000000000000000000000000000000000000000000000815260040180806020018281038252601a8152602001807f54686520736f6e67206973206e6f74207265676973746572656400000000000081525060200191505060405180910390fd5b8173ffffffffffffffffffffffffffffffffffffffff166000808573ffffffffffffffffffffffffffffffffffffffff1673ffffffffffffffffffffffffffffffffffffffff16815260200190815260200160002060030160008473ffffffffffffffffffffffffffffffffffffffff1673ffffffffffffffffffffffffffffffffffffffff16815260200190815260200160002060000160009054906101000a900473ffffffffffffffffffffffffffffffffffffffff1673ffffffffffffffffffffffffffffffffffffffff1614156128305760019050612835565b600090505b92915050565b600061284783836126d3565b15156128e1576040517f08c379a00000000000000000000000000000000000000000000000000000000081526004018080602001828103825260218152602001807f54686973206973206e6f7420616e206f776e6572206f662074686520736f6e6781526020017f2e0000000000000000000000000000000000000000000000000000000000000081525060400191505060405180910390fd5b6000808473ffffffffffffffffffffffffffffffffffffffff1673ffffffffffffffffffffffffffffffffffffffff16815260200190815260200160002060030160008373ffffffffffffffffffffffffffffffffffffffff1673ffffffffffffffffffffffffffffffffffffffff16815260200190815260200160002060000160149054906101000a900461ffff16905092915050565b600061298483610b5f565b15156129f8576040517f08c379a000000000000000000000000000000000000000000000000000000000815260040180806020018281038252601e8152602001807f54686520736f6e6720697320616c72656164792072656769737465726564000081525060200191505060405180910390fd5b612a0283836126d3565b1515612bb357612a10612bbd565b33816000019073ffffffffffffffffffffffffffffffffffffffff16908173ffffffffffffffffffffffffffffffffffffffff168152505060016000808673ffffffffffffffffffffffffffffffffffffffff1673ffffffffffffffffffffffffffffffffffffffff16815260200190815260200160002060020160008282540192505081905550806000808673ffffffffffffffffffffffffffffffffffffffff1673ffffffffffffffffffffffffffffffffffffffff16815260200190815260200160002060030160003373ffffffffffffffffffffffffffffffffffffffff1673ffffffffffffffffffffffffffffffffffffffff16815260200190815260200160002060008201518160000160006101000a81548173ffffffffffffffffffffffffffffffffffffffff021916908373ffffffffffffffffffffffffffffffffffffffff16021790555060208201518160000160146101000a81548161ffff021916908361ffff16021790555060408201518160000160166101000a81548161ffff021916908361ffff16021790555060608201518160010155905050505b6001905092915050565b608060405190810160405280600073ffffffffffffffffffffffffffffffffffffffff168152602001600061ffff168152602001600061ffff168152602001600081525090565b60606040519081016040528060008152602001600073ffffffffffffffffffffffffffffffffffffffff16815260200160008152509056fea165627a7a72305820db82fd1a64d5905fa2861d3bfe628df54a11104ffca46f892faf77d6707c5e830029",
  "source": "pragma solidity ^0.5.0;\n\ncontract SongsContract{\n\n    struct Owner{\n        address owner;\n        uint16 royaltyPoints;\n        uint16 royaltyPointsOffered;\n        uint pricePerRoyaltyPoint;\n    }\n\n    struct Song {\n        uint balance;\n        address creator;\n        uint ownersSize;\n        mapping (address => Owner) owners;\n        \n    }\n\n    uint public constant songPrice = 8000000000000000; // approximately 1 dollar represented in wei (1 eth = 10^17 wei)\n    uint16 public constant MAX_ROYALTY_POINTS = 10000;\n\n    mapping (address => Song) public songs ;\n    mapping (address => bool) public authorizedListeners; //People who bought the song\n    mapping (address => uint) public royaltiesPayable; //ether payable to royalty sellers;\n\n    function registerSong(address songAddress) public returns (bool success){\n        require(!isSongRegistered(songAddress), \"The song is already registered\");\n        Owner memory currentOwner = Owner(msg.sender, MAX_ROYALTY_POINTS,0,0);\n\n        Song memory currentSong = Song(0,msg.sender,0);\n        songs[songAddress] = currentSong;\n        songs[songAddress].ownersSize += 1;\n        songs[songAddress].owners[msg.sender] = currentOwner;\n\n        return true;\n    }\n\n    function registerOwner(address songAddress, address newOwner) internal returns (bool){\n        require(isSongRegistered(songAddress), \"The song is already registered\");\n        \n        //check if buyer was already an owner\n        if(!isOwner(songAddress, newOwner)){\n            //not an owner\n            Owner memory newOwner;\n            newOwner.owner = msg.sender;\n            songs[songAddress].ownersSize += 1;\n            songs[songAddress].owners[msg.sender] = newOwner;\n        }    \n        return true;\n    }\n\n    //buy song, as of the authorization to listen the to song.\n    function buy(address payable songAddress) public payable returns(bool success){\n        require(isSongRegistered(songAddress), \"The song is not registered\");\n        require(msg.value == songPrice);\n        songs[songAddress].balance += msg.value;\n        authorizedListeners[msg.sender] = true;\n        return true;\n    }\n    \n    //places phonogram royalties on sale\n    function sellRoyalties(address songAddress, uint16 royalties, uint newPricePerRoyaltyPoint) public returns (bool success){\n        require(isOwner(songAddress, msg.sender), \"This is not an owner of the song\");\n        require(royalties <= viewMaxRoyaltyPoints(), \"You can't sell more royalties than the existing ones\");\n        uint16 ownedRoyalties = viewOwnRoyaltyPoints(songAddress, msg.sender);\n        require(royalties <= ownedRoyalties, \"You can't sell more royalties than what you own\");\n        require(royalties > 0, \"You have to sell at least one royalty point\");\n\n        songs[songAddress].owners[msg.sender].royaltyPointsOffered += royalties; \n        songs[songAddress].owners[msg.sender].pricePerRoyaltyPoint = newPricePerRoyaltyPoint;\n\n        return true;\n    }\n\n    //withdraws x amount of royalty points currently on sale from being sold.\n    function withdrawOffer(address songAddress, uint16 royalties) public returns (bool success){\n        require(isOwner(songAddress, msg.sender), \"This is not an owner of the song\");\n        require(royalties <= viewMaxRoyaltyPoints(), \"You can't withdraw more royalties than the existing ones\");\n        uint16 ownedRoyalties = viewOwnRoyaltyPoints(songAddress, msg.sender);\n        require(royalties <= ownedRoyalties, \"You can't withdraw more royalties than what you own\");\n        require(songs[songAddress].owners[msg.sender].royaltyPointsOffered + royalties <= ownedRoyalties, \"You can't withdraw more royalties than what you offered\");\n\n        songs[songAddress].owners[msg.sender].royaltyPointsOffered -= royalties; \n\n        return true;\n    }\n\n    //this buys all the royalties offered (to keep it simple for now)\n    function buyRoyalties(address songAddress, address seller) public payable returns (bool success){\n        require(isOwner(songAddress, seller), \"That seller is not an owner of the song\");\n        uint royaltiesPrice = viewRoyaltyOfferedPrice(songAddress, seller);\n        require(msg.value == royaltiesPrice);\n\n        royaltiesPayable[seller] += msg.value;\n\n        registerOwner(songAddress, msg.sender);\n        //this should not be false at this point\n        assert(isOwner(songAddress, msg.sender));\n        \n        uint16 royaltiesOffered = songs[songAddress].owners[seller].royaltyPointsOffered;\n        songs[songAddress].owners[msg.sender].royaltyPoints += royaltiesOffered;\n        songs[songAddress].owners[seller].royaltyPoints -= royaltiesOffered;\n        songs[songAddress].owners[seller].royaltyPointsOffered = 0;\n        songs[songAddress].owners[seller].pricePerRoyaltyPoint = 0;\n\n        return true; \n    }\n    \n\n    function viewSongPrice() public pure returns(uint){\n        return(songPrice);\n    }\n\n    function viewMaxRoyaltyPoints() public pure returns(uint16){\n        return(MAX_ROYALTY_POINTS);\n    }\n\n    //Checks royalty points of 3rd parties and is only accessed by the contract\n    function viewOwnRoyaltyPoints(address songAddress, address caller) internal view returns(uint16){\n        require(isOwner(songAddress, caller), \"This is not an owner of the song.\");\n        return(songs[songAddress].owners[caller].royaltyPoints);\n    }\n    //checks royalty points of caller, accessed by only by users\n    function checkRoyaltyPoints(address songAddress) external view returns(uint16){\n        require(isOwner(songAddress, msg.sender), \"This is not an owner of the song.\");\n        return(songs[songAddress].owners[msg.sender].royaltyPoints);\n    }\n\n    function viewRoyaltyPointsOffered(address songAddress, address owner) public view returns(uint16){\n        require(isOwner(songAddress, owner), \"This is not an owner of the song.\");\n        return(songs[songAddress].owners[owner].royaltyPointsOffered);\n    }\n\n    function viewRoyaltyOfferedPrice(address songAddress, address owner) public view returns(uint){\n        require(isOwner(songAddress, owner), \"This is not an owner of the song.\");\n        uint priceRoyalties = songs[songAddress].owners[owner].royaltyPointsOffered * songs[songAddress].owners[owner].pricePerRoyaltyPoint;\n        return priceRoyalties;\n    }\n\n    //Checks ownership of 3rd parties and is only accessed by the contract\n    function isOwner(address songAddress, address caller) internal view returns(bool){ \n        require(isSongRegistered(songAddress), \"The song is not registered\");\n        if(songs[songAddress].owners[caller].owner == caller){\n            return true;\n        }\n        return false;\n    }\n\n    //checks ownership of caller, accessed by only by users\n    function checkOwnership(address songAddress) external view returns(bool){ \n        require(isSongRegistered(songAddress), \"The song is not registered\");\n        if(songs[songAddress].owners[msg.sender].owner == msg.sender){\n            return true;\n        }\n        return false;\n    }\n\n    function isSongRegistered(address songAddress) public view returns(bool){\n        if(songs[songAddress].ownersSize > 0 ){\n            return true;\n        }\n        else{\n            return false;\n        }\n    }\n\n    function checkSongBalance(address songAddress) public view returns(uint){\n        require(isSongRegistered(songAddress), \"The song is not registered\");\n        require(isOwner(songAddress, msg.sender), \"This is not an owner\");\n        return(songs[songAddress].balance);\n    }\n\n    function isListener() public view returns(bool){\n        //\"You have not bought this song yet.\"\n        if(authorizedListeners[msg.sender]){\n            return true;\n        }\n        else{\n            return false;\n        }\n    }\n\n    function withdraw(address songAddress) public {\n        require(isSongRegistered(songAddress), \"The song is not registered\");\n        require(isOwner(songAddress, msg.sender), \"This is not an owner of the song.\");\n        uint songBalance = songs[songAddress].balance;\n        require(songs[songAddress].balance > 0, \"There is nothing to withdraw\");\n        require(songs[songAddress].balance >= MAX_ROYALTY_POINTS, \"The current song's balance is too low to make a withdrawal\");\n        \n        Owner memory currentOwner = songs[songAddress].owners[msg.sender];\n        uint amount = (songBalance/MAX_ROYALTY_POINTS)*currentOwner.royaltyPoints;\n        amount += royaltiesPayable[msg.sender];\n        msg.sender.transfer(amount);\n        royaltiesPayable[msg.sender] = 0;\n        songs[songAddress].balance -= amount;\n\n    }\n}",
  "sourcePath": "C:/Users/Lopi's Acer/Documents/NYU/Academics/Senior/Agile Software/music-through-blockchain/bcContracts/contracts/songsContract.sol",
  "compiler": {
    "name": "solc",
    "version": "0.5.0+commit.1d4f565a.Emscripten.clang"
  },
  "schemaVersion": "3.0.2",
  "updatedAt": "2019-03-31T20:56:37.767Z",
  "devdoc": {
    "methods": {}
  },
  "userdoc": {
    "methods": {}
  }
}