{
  "contractName": "SongsContract",
  "abi": [
    {
      "constant": true,
      "inputs": [],
      "name": "songPrice",
      "outputs": [
        {
          "name": "",
          "type": "uint256"
        }
      ],
      "payable": false,
      "stateMutability": "view",
      "type": "function",
      "signature": "0x0274d4f3"
    },
    {
      "constant": true,
      "inputs": [
        {
          "name": "",
          "type": "address"
        }
      ],
      "name": "royaltiesPayable",
      "outputs": [
        {
          "name": "",
          "type": "uint256"
        }
      ],
      "payable": false,
      "stateMutability": "view",
      "type": "function",
      "signature": "0x3b6fdd9c"
    },
    {
      "constant": true,
      "inputs": [
        {
          "name": "",
          "type": "address"
        }
      ],
      "name": "songs",
      "outputs": [
        {
          "name": "balance",
          "type": "uint256"
        },
        {
          "name": "creator",
          "type": "address"
        },
        {
          "name": "ownersSize",
          "type": "uint256"
        }
      ],
      "payable": false,
      "stateMutability": "view",
      "type": "function",
      "signature": "0x6a4db6e5"
    },
    {
      "constant": true,
      "inputs": [],
      "name": "MAX_ROYALTY_POINTS",
      "outputs": [
        {
          "name": "",
          "type": "uint16"
        }
      ],
      "payable": false,
      "stateMutability": "view",
      "type": "function",
      "signature": "0x864380cf"
    },
    {
      "constant": false,
      "inputs": [
        {
          "name": "songAddress",
          "type": "address"
        }
      ],
      "name": "registerSong",
      "outputs": [
        {
          "name": "success",
          "type": "bool"
        }
      ],
      "payable": false,
      "stateMutability": "nonpayable",
      "type": "function",
      "signature": "0x65528faf"
    },
    {
      "constant": false,
      "inputs": [
        {
          "name": "songAddress",
          "type": "address"
        }
      ],
      "name": "buy",
      "outputs": [
        {
          "name": "success",
          "type": "bool"
        }
      ],
      "payable": true,
      "stateMutability": "payable",
      "type": "function",
      "signature": "0xf088d547"
    },
    {
      "constant": false,
      "inputs": [
        {
          "name": "songAddress",
          "type": "address"
        },
        {
          "name": "royalties",
          "type": "uint16"
        },
        {
          "name": "newPricePerRoyaltyPoint",
          "type": "uint256"
        }
      ],
      "name": "sellRoyalties",
      "outputs": [
        {
          "name": "success",
          "type": "bool"
        }
      ],
      "payable": false,
      "stateMutability": "nonpayable",
      "type": "function",
      "signature": "0xefd9eff0"
    },
    {
      "constant": false,
      "inputs": [
        {
          "name": "songAddress",
          "type": "address"
        },
        {
          "name": "royalties",
          "type": "uint16"
        }
      ],
      "name": "withdrawOffer",
      "outputs": [
        {
          "name": "success",
          "type": "bool"
        }
      ],
      "payable": false,
      "stateMutability": "nonpayable",
      "type": "function",
      "signature": "0x47a7da91"
    },
    {
      "constant": false,
      "inputs": [
        {
          "name": "songAddress",
          "type": "address"
        },
        {
          "name": "seller",
          "type": "address"
        }
      ],
      "name": "buyRoyalties",
      "outputs": [
        {
          "name": "success",
          "type": "bool"
        }
      ],
      "payable": true,
      "stateMutability": "payable",
      "type": "function",
      "signature": "0xd25b53e0"
    },
    {
      "constant": true,
      "inputs": [],
      "name": "viewSongPrice",
      "outputs": [
        {
          "name": "",
          "type": "uint256"
        }
      ],
      "payable": false,
      "stateMutability": "pure",
      "type": "function",
      "signature": "0xe2a941d4"
    },
    {
      "constant": true,
      "inputs": [],
      "name": "viewMaxRoyaltyPoints",
      "outputs": [
        {
          "name": "",
          "type": "uint16"
        }
      ],
      "payable": false,
      "stateMutability": "pure",
      "type": "function",
      "signature": "0x33c4e11a"
    },
    {
      "constant": true,
      "inputs": [
        {
          "name": "songAddress",
          "type": "address"
        }
      ],
      "name": "checkRoyaltyPoints",
      "outputs": [
        {
          "name": "",
          "type": "uint16"
        }
      ],
      "payable": false,
      "stateMutability": "view",
      "type": "function",
      "signature": "0xc46250d9"
    },
    {
      "constant": true,
      "inputs": [
        {
          "name": "songAddress",
          "type": "address"
        },
        {
          "name": "owner",
          "type": "address"
        }
      ],
      "name": "viewRoyaltyPointsOffered",
      "outputs": [
        {
          "name": "",
          "type": "uint16"
        }
      ],
      "payable": false,
      "stateMutability": "view",
      "type": "function",
      "signature": "0x0cbba9a3"
    },
    {
      "constant": true,
      "inputs": [
        {
          "name": "songAddress",
          "type": "address"
        },
        {
          "name": "owner",
          "type": "address"
        }
      ],
      "name": "viewRoyaltyOfferedPrice",
      "outputs": [
        {
          "name": "",
          "type": "uint256"
        }
      ],
      "payable": false,
      "stateMutability": "view",
      "type": "function",
      "signature": "0x7c20f5cd"
    },
    {
      "constant": true,
      "inputs": [
        {
          "name": "songAddress",
          "type": "address"
        }
      ],
      "name": "checkOwnership",
      "outputs": [
        {
          "name": "",
          "type": "bool"
        }
      ],
      "payable": false,
      "stateMutability": "view",
      "type": "function",
      "signature": "0x0c8b234e"
    },
    {
      "constant": true,
      "inputs": [
        {
          "name": "songAddress",
          "type": "address"
        }
      ],
      "name": "isSongRegistered",
      "outputs": [
        {
          "name": "",
          "type": "bool"
        }
      ],
      "payable": false,
      "stateMutability": "view",
      "type": "function",
      "signature": "0x25ce950b"
    },
    {
      "constant": true,
      "inputs": [
        {
          "name": "songAddress",
          "type": "address"
        }
      ],
      "name": "checkSongBalance",
      "outputs": [
        {
          "name": "",
          "type": "uint256"
        }
      ],
      "payable": false,
      "stateMutability": "view",
      "type": "function",
      "signature": "0x96ca53b4"
    },
    {
      "constant": true,
      "inputs": [
        {
          "name": "songAddress",
          "type": "address"
        }
      ],
      "name": "isListener",
      "outputs": [
        {
          "name": "",
          "type": "bool"
        }
      ],
      "payable": false,
      "stateMutability": "view",
      "type": "function",
      "signature": "0x31b2c089"
    },
    {
      "constant": false,
      "inputs": [
        {
          "name": "songAddress",
          "type": "address"
        }
      ],
      "name": "withdraw",
      "outputs": [],
      "payable": false,
      "stateMutability": "nonpayable",
      "type": "function",
      "signature": "0x51cff8d9"
    }
  ],
  "bytecode": "0x608060405234801561001057600080fd5b50612c8f806100206000396000f3fe608060405260043610610107576000357c0100000000000000000000000000000000000000000000000000000000900463ffffffff1680630274d4f31461010c5780630c8b234e146101375780630cbba9a3146101a057806325ce950b1461022d57806331b2c0891461029657806333c4e11a146102ff5780633b6fdd9c1461033257806347a7da911461039757806351cff8d91461040e57806365528faf1461045f5780636a4db6e5146104c85780637c20f5cd14610567578063864380cf146105ec57806396ca53b41461061f578063c46250d914610684578063d25b53e0146106f1578063e2a941d41461076d578063efd9eff014610798578063f088d54714610819575b600080fd5b34801561011857600080fd5b50610121610875565b6040518082815260200191505060405180910390f35b34801561014357600080fd5b506101866004803603602081101561015a57600080fd5b81019080803573ffffffffffffffffffffffffffffffffffffffff169060200190929190505050610880565b604051808215151515815260200191505060405180910390f35b3480156101ac57600080fd5b5061020f600480360360408110156101c357600080fd5b81019080803573ffffffffffffffffffffffffffffffffffffffff169060200190929190803573ffffffffffffffffffffffffffffffffffffffff1690602001909291905050506109e7565b604051808261ffff1661ffff16815260200191505060405180910390f35b34801561023957600080fd5b5061027c6004803603602081101561025057600080fd5b81019080803573ffffffffffffffffffffffffffffffffffffffff169060200190929190505050610b25565b604051808215151515815260200191505060405180910390f35b3480156102a257600080fd5b506102e5600480360360208110156102b957600080fd5b81019080803573ffffffffffffffffffffffffffffffffffffffff169060200190929190505050610b83565b604051808215151515815260200191505060405180910390f35b34801561030b57600080fd5b50610314610c29565b604051808261ffff1661ffff16815260200191505060405180910390f35b34801561033e57600080fd5b506103816004803603602081101561035557600080fd5b81019080803573ffffffffffffffffffffffffffffffffffffffff169060200190929190505050610c33565b6040518082815260200191505060405180910390f35b3480156103a357600080fd5b506103f4600480360360408110156103ba57600080fd5b81019080803573ffffffffffffffffffffffffffffffffffffffff169060200190929190803561ffff169060200190929190505050610c4b565b604051808215151515815260200191505060405180910390f35b34801561041a57600080fd5b5061045d6004803603602081101561043157600080fd5b81019080803573ffffffffffffffffffffffffffffffffffffffff16906020019092919050505061101d565b005b34801561046b57600080fd5b506104ae6004803603602081101561048257600080fd5b81019080803573ffffffffffffffffffffffffffffffffffffffff16906020019092919050505061159b565b604051808215151515815260200191505060405180910390f35b3480156104d457600080fd5b50610517600480360360208110156104eb57600080fd5b81019080803573ffffffffffffffffffffffffffffffffffffffff1690602001909291905050506118b8565b604051808481526020018373ffffffffffffffffffffffffffffffffffffffff1673ffffffffffffffffffffffffffffffffffffffff168152602001828152602001935050505060405180910390f35b34801561057357600080fd5b506105d66004803603604081101561058a57600080fd5b81019080803573ffffffffffffffffffffffffffffffffffffffff169060200190929190803573ffffffffffffffffffffffffffffffffffffffff169060200190929190505050611902565b6040518082815260200191505060405180910390f35b3480156105f857600080fd5b50610601611acd565b604051808261ffff1661ffff16815260200191505060405180910390f35b34801561062b57600080fd5b5061066e6004803603602081101561064257600080fd5b81019080803573ffffffffffffffffffffffffffffffffffffffff169060200190929190505050611ad3565b6040518082815260200191505060405180910390f35b34801561069057600080fd5b506106d3600480360360208110156106a757600080fd5b81019080803573ffffffffffffffffffffffffffffffffffffffff169060200190929190505050611c19565b604051808261ffff1661ffff16815260200191505060405180910390f35b6107536004803603604081101561070757600080fd5b81019080803573ffffffffffffffffffffffffffffffffffffffff169060200190929190803573ffffffffffffffffffffffffffffffffffffffff169060200190929190505050611d56565b604051808215151515815260200191505060405180910390f35b34801561077957600080fd5b506107826121a4565b6040518082815260200191505060405180910390f35b3480156107a457600080fd5b506107ff600480360360608110156107bb57600080fd5b81019080803573ffffffffffffffffffffffffffffffffffffffff169060200190929190803561ffff169060200190929190803590602001909291905050506121b3565b604051808215151515815260200191505060405180910390f35b61085b6004803603602081101561082f57600080fd5b81019080803573ffffffffffffffffffffffffffffffffffffffff169060200190929190505050612577565b604051808215151515815260200191505060405180910390f35b661c6bf52634000081565b600061088b82610b25565b15156108ff576040517f08c379a000000000000000000000000000000000000000000000000000000000815260040180806020018281038252601a8152602001807f54686520736f6e67206973206e6f74207265676973746572656400000000000081525060200191505060405180910390fd5b3373ffffffffffffffffffffffffffffffffffffffff166000808473ffffffffffffffffffffffffffffffffffffffff1673ffffffffffffffffffffffffffffffffffffffff16815260200190815260200160002060030160003373ffffffffffffffffffffffffffffffffffffffff1673ffffffffffffffffffffffffffffffffffffffff16815260200190815260200160002060000160009054906101000a900473ffffffffffffffffffffffffffffffffffffffff1673ffffffffffffffffffffffffffffffffffffffff1614156109dd57600190506109e2565b600090505b919050565b60006109f383836126fa565b1515610a8d576040517f08c379a00000000000000000000000000000000000000000000000000000000081526004018080602001828103825260218152602001807f54686973206973206e6f7420616e206f776e6572206f662074686520736f6e6781526020017f2e0000000000000000000000000000000000000000000000000000000000000081525060400191505060405180910390fd5b6000808473ffffffffffffffffffffffffffffffffffffffff1673ffffffffffffffffffffffffffffffffffffffff16815260200190815260200160002060030160008373ffffffffffffffffffffffffffffffffffffffff1673ffffffffffffffffffffffffffffffffffffffff16815260200190815260200160002060000160169054906101000a900461ffff16905092915050565b6000806000808473ffffffffffffffffffffffffffffffffffffffff1673ffffffffffffffffffffffffffffffffffffffff168152602001908152602001600020600201541115610b795760019050610b7e565b600090505b919050565b60008060008373ffffffffffffffffffffffffffffffffffffffff1673ffffffffffffffffffffffffffffffffffffffff16815260200190815260200160002060040160003373ffffffffffffffffffffffffffffffffffffffff1673ffffffffffffffffffffffffffffffffffffffff16815260200190815260200160002060009054906101000a900460ff1615610c1f5760019050610c24565b600090505b919050565b6000612710905090565b60016020528060005260406000206000915090505481565b6000610c5783336126fa565b1515610ccb576040517f08c379a00000000000000000000000000000000000000000000000000000000081526004018080602001828103825260208152602001807f54686973206973206e6f7420616e206f776e6572206f662074686520736f6e6781525060200191505060405180910390fd5b610cd3610c29565b61ffff168261ffff1611151515610d78576040517f08c379a00000000000000000000000000000000000000000000000000000000081526004018080602001828103825260388152602001807f596f752063616e2774207769746864726177206d6f726520726f79616c74696581526020017f73207468616e20746865206578697374696e67206f6e6573000000000000000081525060400191505060405180910390fd5b6000610d848433612862565b90508061ffff168361ffff1611151515610e2c576040517f08c379a00000000000000000000000000000000000000000000000000000000081526004018080602001828103825260338152602001807f596f752063616e2774207769746864726177206d6f726520726f79616c74696581526020017f73207468616e207768617420796f75206f776e0000000000000000000000000081525060400191505060405180910390fd5b8061ffff16836000808773ffffffffffffffffffffffffffffffffffffffff1673ffffffffffffffffffffffffffffffffffffffff16815260200190815260200160002060030160003373ffffffffffffffffffffffffffffffffffffffff1673ffffffffffffffffffffffffffffffffffffffff16815260200190815260200160002060000160169054906101000a900461ffff160161ffff1611151515610f63576040517f08c379a00000000000000000000000000000000000000000000000000000000081526004018080602001828103825260378152602001807f596f752063616e2774207769746864726177206d6f726520726f79616c74696581526020017f73207468616e207768617420796f75206f66666572656400000000000000000081525060400191505060405180910390fd5b826000808673ffffffffffffffffffffffffffffffffffffffff1673ffffffffffffffffffffffffffffffffffffffff16815260200190815260200160002060030160003373ffffffffffffffffffffffffffffffffffffffff1673ffffffffffffffffffffffffffffffffffffffff16815260200190815260200160002060000160168282829054906101000a900461ffff160392506101000a81548161ffff021916908361ffff160217905550600191505092915050565b61102681610b25565b151561109a576040517f08c379a000000000000000000000000000000000000000000000000000000000815260040180806020018281038252601a8152602001807f54686520736f6e67206973206e6f74207265676973746572656400000000000081525060200191505060405180910390fd5b6110a481336126fa565b151561113e576040517f08c379a00000000000000000000000000000000000000000000000000000000081526004018080602001828103825260218152602001807f54686973206973206e6f7420616e206f776e6572206f662074686520736f6e6781526020017f2e0000000000000000000000000000000000000000000000000000000000000081525060400191505060405180910390fd5b60008060008373ffffffffffffffffffffffffffffffffffffffff1673ffffffffffffffffffffffffffffffffffffffff16815260200190815260200160002060000154905060008060008473ffffffffffffffffffffffffffffffffffffffff1673ffffffffffffffffffffffffffffffffffffffff1681526020019081526020016000206000015411151561123d576040517f08c379a000000000000000000000000000000000000000000000000000000000815260040180806020018281038252601c8152602001807f5468657265206973206e6f7468696e6720746f2077697468647261770000000081525060200191505060405180910390fd5b61271061ffff166000808473ffffffffffffffffffffffffffffffffffffffff1673ffffffffffffffffffffffffffffffffffffffff1681526020019081526020016000206000015410151515611322576040517f08c379a000000000000000000000000000000000000000000000000000000000815260040180806020018281038252603a8152602001807f5468652063757272656e7420736f6e6727732062616c616e636520697320746f81526020017f6f206c6f7720746f206d616b652061207769746864726177616c00000000000081525060400191505060405180910390fd5b61132a612be4565b6000808473ffffffffffffffffffffffffffffffffffffffff1673ffffffffffffffffffffffffffffffffffffffff16815260200190815260200160002060030160003373ffffffffffffffffffffffffffffffffffffffff1673ffffffffffffffffffffffffffffffffffffffff168152602001908152602001600020608060405190810160405290816000820160009054906101000a900473ffffffffffffffffffffffffffffffffffffffff1673ffffffffffffffffffffffffffffffffffffffff1673ffffffffffffffffffffffffffffffffffffffff1681526020016000820160149054906101000a900461ffff1661ffff1661ffff1681526020016000820160169054906101000a900461ffff1661ffff1661ffff16815260200160018201548152505090506000816020015161ffff1661271061ffff168481151561147257fe5b04029050600160003373ffffffffffffffffffffffffffffffffffffffff1673ffffffffffffffffffffffffffffffffffffffff16815260200190815260200160002054810190503373ffffffffffffffffffffffffffffffffffffffff166108fc829081150290604051600060405180830381858888f19350505050158015611500573d6000803e3d6000fd5b506000600160003373ffffffffffffffffffffffffffffffffffffffff1673ffffffffffffffffffffffffffffffffffffffff16815260200190815260200160002081905550806000808673ffffffffffffffffffffffffffffffffffffffff1673ffffffffffffffffffffffffffffffffffffffff1681526020019081526020016000206000016000828254039250508190555050505050565b60006115a682610b25565b15151561161b576040517f08c379a000000000000000000000000000000000000000000000000000000000815260040180806020018281038252601e8152602001807f54686520736f6e6720697320616c72656164792072656769737465726564000081525060200191505060405180910390fd5b611623612be4565b6080604051908101604052803373ffffffffffffffffffffffffffffffffffffffff16815260200161271061ffff168152602001600061ffff16815260200160008152509050611671612c2b565b606060405190810160405280600081526020013373ffffffffffffffffffffffffffffffffffffffff16815260200160008152509050806000808673ffffffffffffffffffffffffffffffffffffffff1673ffffffffffffffffffffffffffffffffffffffff1681526020019081526020016000206000820151816000015560208201518160010160006101000a81548173ffffffffffffffffffffffffffffffffffffffff021916908373ffffffffffffffffffffffffffffffffffffffff1602179055506040820151816002015590505060016000808673ffffffffffffffffffffffffffffffffffffffff1673ffffffffffffffffffffffffffffffffffffffff16815260200190815260200160002060020160008282540192505081905550816000808673ffffffffffffffffffffffffffffffffffffffff1673ffffffffffffffffffffffffffffffffffffffff16815260200190815260200160002060030160003373ffffffffffffffffffffffffffffffffffffffff1673ffffffffffffffffffffffffffffffffffffffff16815260200190815260200160002060008201518160000160006101000a81548173ffffffffffffffffffffffffffffffffffffffff021916908373ffffffffffffffffffffffffffffffffffffffff16021790555060208201518160000160146101000a81548161ffff021916908361ffff16021790555060408201518160000160166101000a81548161ffff021916908361ffff16021790555060608201518160010155905050600192505050919050565b60006020528060005260406000206000915090508060000154908060010160009054906101000a900473ffffffffffffffffffffffffffffffffffffffff16908060020154905083565b600061190e83836126fa565b15156119a8576040517f08c379a00000000000000000000000000000000000000000000000000000000081526004018080602001828103825260218152602001807f54686973206973206e6f7420616e206f776e6572206f662074686520736f6e6781526020017f2e0000000000000000000000000000000000000000000000000000000000000081525060400191505060405180910390fd5b60008060008573ffffffffffffffffffffffffffffffffffffffff1673ffffffffffffffffffffffffffffffffffffffff16815260200190815260200160002060030160008473ffffffffffffffffffffffffffffffffffffffff1673ffffffffffffffffffffffffffffffffffffffff168152602001908152602001600020600101546000808673ffffffffffffffffffffffffffffffffffffffff1673ffffffffffffffffffffffffffffffffffffffff16815260200190815260200160002060030160008573ffffffffffffffffffffffffffffffffffffffff1673ffffffffffffffffffffffffffffffffffffffff16815260200190815260200160002060000160169054906101000a900461ffff1661ffff160290508091505092915050565b61271081565b6000611ade82610b25565b1515611b52576040517f08c379a000000000000000000000000000000000000000000000000000000000815260040180806020018281038252601a8152602001807f54686520736f6e67206973206e6f74207265676973746572656400000000000081525060200191505060405180910390fd5b611b5c82336126fa565b1515611bd0576040517f08c379a00000000000000000000000000000000000000000000000000000000081526004018080602001828103825260148152602001807f54686973206973206e6f7420616e206f776e657200000000000000000000000081525060200191505060405180910390fd5b6000808373ffffffffffffffffffffffffffffffffffffffff1673ffffffffffffffffffffffffffffffffffffffff168152602001908152602001600020600001549050919050565b6000611c2582336126fa565b1515611cbf576040517f08c379a00000000000000000000000000000000000000000000000000000000081526004018080602001828103825260218152602001807f54686973206973206e6f7420616e206f776e6572206f662074686520736f6e6781526020017f2e0000000000000000000000000000000000000000000000000000000000000081525060400191505060405180910390fd5b6000808373ffffffffffffffffffffffffffffffffffffffff1673ffffffffffffffffffffffffffffffffffffffff16815260200190815260200160002060030160003373ffffffffffffffffffffffffffffffffffffffff1673ffffffffffffffffffffffffffffffffffffffff16815260200190815260200160002060000160149054906101000a900461ffff169050919050565b6000611d6283836126fa565b1515611dfc576040517f08c379a00000000000000000000000000000000000000000000000000000000081526004018080602001828103825260278152602001807f546861742073656c6c6572206973206e6f7420616e206f776e6572206f66207481526020017f686520736f6e670000000000000000000000000000000000000000000000000081525060400191505060405180910390fd5b6000611e088484611902565b90508034141515611e1857600080fd5b34600160008573ffffffffffffffffffffffffffffffffffffffff1673ffffffffffffffffffffffffffffffffffffffff16815260200190815260200160002060008282540192505081905550611e6f84336129a0565b50611e7a84336126fa565b1515611e8257fe5b60008060008673ffffffffffffffffffffffffffffffffffffffff1673ffffffffffffffffffffffffffffffffffffffff16815260200190815260200160002060030160008573ffffffffffffffffffffffffffffffffffffffff1673ffffffffffffffffffffffffffffffffffffffff16815260200190815260200160002060000160169054906101000a900461ffff169050806000808773ffffffffffffffffffffffffffffffffffffffff1673ffffffffffffffffffffffffffffffffffffffff16815260200190815260200160002060030160003373ffffffffffffffffffffffffffffffffffffffff1673ffffffffffffffffffffffffffffffffffffffff16815260200190815260200160002060000160148282829054906101000a900461ffff160192506101000a81548161ffff021916908361ffff160217905550806000808773ffffffffffffffffffffffffffffffffffffffff1673ffffffffffffffffffffffffffffffffffffffff16815260200190815260200160002060030160008673ffffffffffffffffffffffffffffffffffffffff1673ffffffffffffffffffffffffffffffffffffffff16815260200190815260200160002060000160148282829054906101000a900461ffff160392506101000a81548161ffff021916908361ffff16021790555060008060008773ffffffffffffffffffffffffffffffffffffffff1673ffffffffffffffffffffffffffffffffffffffff16815260200190815260200160002060030160008673ffffffffffffffffffffffffffffffffffffffff1673ffffffffffffffffffffffffffffffffffffffff16815260200190815260200160002060000160166101000a81548161ffff021916908361ffff16021790555060008060008773ffffffffffffffffffffffffffffffffffffffff1673ffffffffffffffffffffffffffffffffffffffff16815260200190815260200160002060030160008673ffffffffffffffffffffffffffffffffffffffff1673ffffffffffffffffffffffffffffffffffffffff1681526020019081526020016000206001018190555060019250505092915050565b6000661c6bf526340000905090565b60006121bf84336126fa565b1515612233576040517f08c379a00000000000000000000000000000000000000000000000000000000081526004018080602001828103825260208152602001807f54686973206973206e6f7420616e206f776e6572206f662074686520736f6e6781525060200191505060405180910390fd5b61223b610c29565b61ffff168361ffff16111515156122e0576040517f08c379a00000000000000000000000000000000000000000000000000000000081526004018080602001828103825260348152602001807f596f752063616e27742073656c6c206d6f726520726f79616c7469657320746881526020017f616e20746865206578697374696e67206f6e657300000000000000000000000081525060400191505060405180910390fd5b60006122ec8533612862565b90508061ffff168461ffff1611151515612394576040517f08c379a000000000000000000000000000000000000000000000000000000000815260040180806020018281038252602f8152602001807f596f752063616e27742073656c6c206d6f726520726f79616c7469657320746881526020017f616e207768617420796f75206f776e000000000000000000000000000000000081525060400191505060405180910390fd5b60008461ffff16111515612436576040517f08c379a000000000000000000000000000000000000000000000000000000000815260040180806020018281038252602b8152602001807f596f75206861766520746f2073656c6c206174206c65617374206f6e6520726f81526020017f79616c747920706f696e7400000000000000000000000000000000000000000081525060400191505060405180910390fd5b836000808773ffffffffffffffffffffffffffffffffffffffff1673ffffffffffffffffffffffffffffffffffffffff16815260200190815260200160002060030160003373ffffffffffffffffffffffffffffffffffffffff1673ffffffffffffffffffffffffffffffffffffffff16815260200190815260200160002060000160168282829054906101000a900461ffff160192506101000a81548161ffff021916908361ffff160217905550826000808773ffffffffffffffffffffffffffffffffffffffff1673ffffffffffffffffffffffffffffffffffffffff16815260200190815260200160002060030160003373ffffffffffffffffffffffffffffffffffffffff1673ffffffffffffffffffffffffffffffffffffffff1681526020019081526020016000206001018190555060019150509392505050565b600061258282610b25565b15156125f6576040517f08c379a000000000000000000000000000000000000000000000000000000000815260040180806020018281038252601a8152602001807f54686520736f6e67206973206e6f74207265676973746572656400000000000081525060200191505060405180910390fd5b661c6bf5263400003414151561260b57600080fd5b346000808473ffffffffffffffffffffffffffffffffffffffff1673ffffffffffffffffffffffffffffffffffffffff1681526020019081526020016000206000016000828254019250508190555060016000808473ffffffffffffffffffffffffffffffffffffffff1673ffffffffffffffffffffffffffffffffffffffff16815260200190815260200160002060040160003373ffffffffffffffffffffffffffffffffffffffff1673ffffffffffffffffffffffffffffffffffffffff16815260200190815260200160002060006101000a81548160ff02191690831515021790555060019050919050565b600061270583610b25565b1515612779576040517f08c379a000000000000000000000000000000000000000000000000000000000815260040180806020018281038252601a8152602001807f54686520736f6e67206973206e6f74207265676973746572656400000000000081525060200191505060405180910390fd5b8173ffffffffffffffffffffffffffffffffffffffff166000808573ffffffffffffffffffffffffffffffffffffffff1673ffffffffffffffffffffffffffffffffffffffff16815260200190815260200160002060030160008473ffffffffffffffffffffffffffffffffffffffff1673ffffffffffffffffffffffffffffffffffffffff16815260200190815260200160002060000160009054906101000a900473ffffffffffffffffffffffffffffffffffffffff1673ffffffffffffffffffffffffffffffffffffffff161415612857576001905061285c565b600090505b92915050565b600061286e83836126fa565b1515612908576040517f08c379a00000000000000000000000000000000000000000000000000000000081526004018080602001828103825260218152602001807f54686973206973206e6f7420616e206f776e6572206f662074686520736f6e6781526020017f2e0000000000000000000000000000000000000000000000000000000000000081525060400191505060405180910390fd5b6000808473ffffffffffffffffffffffffffffffffffffffff1673ffffffffffffffffffffffffffffffffffffffff16815260200190815260200160002060030160008373ffffffffffffffffffffffffffffffffffffffff1673ffffffffffffffffffffffffffffffffffffffff16815260200190815260200160002060000160149054906101000a900461ffff16905092915050565b60006129ab83610b25565b1515612a1f576040517f08c379a000000000000000000000000000000000000000000000000000000000815260040180806020018281038252601e8152602001807f54686520736f6e6720697320616c72656164792072656769737465726564000081525060200191505060405180910390fd5b612a2983836126fa565b1515612bda57612a37612be4565b33816000019073ffffffffffffffffffffffffffffffffffffffff16908173ffffffffffffffffffffffffffffffffffffffff168152505060016000808673ffffffffffffffffffffffffffffffffffffffff1673ffffffffffffffffffffffffffffffffffffffff16815260200190815260200160002060020160008282540192505081905550806000808673ffffffffffffffffffffffffffffffffffffffff1673ffffffffffffffffffffffffffffffffffffffff16815260200190815260200160002060030160003373ffffffffffffffffffffffffffffffffffffffff1673ffffffffffffffffffffffffffffffffffffffff16815260200190815260200160002060008201518160000160006101000a81548173ffffffffffffffffffffffffffffffffffffffff021916908373ffffffffffffffffffffffffffffffffffffffff16021790555060208201518160000160146101000a81548161ffff021916908361ffff16021790555060408201518160000160166101000a81548161ffff021916908361ffff16021790555060608201518160010155905050505b6001905092915050565b608060405190810160405280600073ffffffffffffffffffffffffffffffffffffffff168152602001600061ffff168152602001600061ffff168152602001600081525090565b60606040519081016040528060008152602001600073ffffffffffffffffffffffffffffffffffffffff16815260200160008152509056fea165627a7a723058200e686890e2cc827f24631992c08c5b4bb6acec226e70eed562de8a82417ac1bc0029",
  "source": "pragma solidity ^0.5.0;\r\n\r\ncontract SongsContract{\r\n\r\n    struct Owner{\r\n        address owner;\r\n        uint16 royaltyPoints;\r\n        uint16 royaltyPointsOffered;\r\n        uint pricePerRoyaltyPoint;\r\n    }\r\n\r\n    struct Song {\r\n        uint balance;\r\n        address creator;\r\n        uint ownersSize;\r\n        mapping (address => Owner) owners;\r\n        mapping (address => bool) authorizedListeners; //People who bought the song\r\n    }\r\n\r\n    uint public constant songPrice = 8000000000000000; // approximately 1 dollar represented in wei (1 eth = 10^17 wei)\r\n    uint16 public constant MAX_ROYALTY_POINTS = 10000;\r\n\r\n    mapping (address => Song) public songs ;\r\n    mapping (address => uint) public royaltiesPayable; //ether payable to royalty sellers;\r\n\r\n    function registerSong(address songAddress) public returns (bool success){\r\n        require(!isSongRegistered(songAddress), \"The song is already registered\");\r\n        Owner memory currentOwner = Owner(msg.sender, MAX_ROYALTY_POINTS,0,0);\r\n\r\n        Song memory currentSong = Song(0,msg.sender,0);\r\n        songs[songAddress] = currentSong;\r\n        songs[songAddress].ownersSize += 1;\r\n        songs[songAddress].owners[msg.sender] = currentOwner;\r\n\r\n        return true;\r\n    }\r\n\r\n    function registerOwner(address songAddress, address newOwner) internal returns (bool){\r\n        require(isSongRegistered(songAddress), \"The song is already registered\");\r\n        \r\n        //check if buyer was already an owner\r\n        if(!isOwner(songAddress, newOwner)){\r\n            //not an owner\r\n            Owner memory newestOwner;\r\n            newestOwner.owner = msg.sender;\r\n            songs[songAddress].ownersSize += 1;\r\n            songs[songAddress].owners[msg.sender] = newestOwner;\r\n        }    \r\n        return true;\r\n    }\r\n\r\n    //buy song, as of the authorization to listen the to song.\r\n    function buy(address payable songAddress) public payable returns(bool success){\r\n        require(isSongRegistered(songAddress), \"The song is not registered\");\r\n        require(msg.value == songPrice);\r\n        songs[songAddress].balance += msg.value;\r\n        songs[songAddress].authorizedListeners[msg.sender] = true;\r\n        return true;\r\n    }\r\n    \r\n    //places phonogram royalties on sale\r\n    function sellRoyalties(address songAddress, uint16 royalties, uint newPricePerRoyaltyPoint) public returns (bool success){\r\n        require(isOwner(songAddress, msg.sender), \"This is not an owner of the song\");\r\n        require(royalties <= viewMaxRoyaltyPoints(), \"You can't sell more royalties than the existing ones\");\r\n        uint16 ownedRoyalties = viewOwnRoyaltyPoints(songAddress, msg.sender);\r\n        require(royalties <= ownedRoyalties, \"You can't sell more royalties than what you own\");\r\n        require(royalties > 0, \"You have to sell at least one royalty point\");\r\n\r\n        songs[songAddress].owners[msg.sender].royaltyPointsOffered += royalties; \r\n        songs[songAddress].owners[msg.sender].pricePerRoyaltyPoint = newPricePerRoyaltyPoint;\r\n\r\n        return true;\r\n    }\r\n\r\n    //withdraws x amount of royalty points currently on sale from being sold.\r\n    function withdrawOffer(address songAddress, uint16 royalties) public returns (bool success){\r\n        require(isOwner(songAddress, msg.sender), \"This is not an owner of the song\");\r\n        require(royalties <= viewMaxRoyaltyPoints(), \"You can't withdraw more royalties than the existing ones\");\r\n        uint16 ownedRoyalties = viewOwnRoyaltyPoints(songAddress, msg.sender);\r\n        require(royalties <= ownedRoyalties, \"You can't withdraw more royalties than what you own\");\r\n        require(songs[songAddress].owners[msg.sender].royaltyPointsOffered + royalties <= ownedRoyalties, \"You can't withdraw more royalties than what you offered\");\r\n\r\n        songs[songAddress].owners[msg.sender].royaltyPointsOffered -= royalties; \r\n\r\n        return true;\r\n    }\r\n\r\n    //this buys all the royalties offered (to keep it simple for now)\r\n    function buyRoyalties(address songAddress, address seller) public payable returns (bool success){\r\n        require(isOwner(songAddress, seller), \"That seller is not an owner of the song\");\r\n        uint royaltiesPrice = viewRoyaltyOfferedPrice(songAddress, seller);\r\n        require(msg.value == royaltiesPrice);\r\n\r\n        royaltiesPayable[seller] += msg.value;\r\n\r\n        registerOwner(songAddress, msg.sender);\r\n        //this should not be false at this point\r\n        assert(isOwner(songAddress, msg.sender));\r\n        \r\n        uint16 royaltiesOffered = songs[songAddress].owners[seller].royaltyPointsOffered;\r\n        songs[songAddress].owners[msg.sender].royaltyPoints += royaltiesOffered;\r\n        songs[songAddress].owners[seller].royaltyPoints -= royaltiesOffered;\r\n        songs[songAddress].owners[seller].royaltyPointsOffered = 0;\r\n        songs[songAddress].owners[seller].pricePerRoyaltyPoint = 0;\r\n\r\n        return true; \r\n    }\r\n    \r\n\r\n    function viewSongPrice() public pure returns(uint){\r\n        return(songPrice);\r\n    }\r\n\r\n    function viewMaxRoyaltyPoints() public pure returns(uint16){\r\n        return(MAX_ROYALTY_POINTS);\r\n    }\r\n\r\n    //Checks royalty points of 3rd parties and is only accessed by the contract\r\n    function viewOwnRoyaltyPoints(address songAddress, address caller) internal view returns(uint16){\r\n        require(isOwner(songAddress, caller), \"This is not an owner of the song.\");\r\n        return(songs[songAddress].owners[caller].royaltyPoints);\r\n    }\r\n    //checks royalty points of caller, accessed by only by users\r\n    function checkRoyaltyPoints(address songAddress) external view returns(uint16){\r\n        require(isOwner(songAddress, msg.sender), \"This is not an owner of the song.\");\r\n        return(songs[songAddress].owners[msg.sender].royaltyPoints);\r\n    }\r\n\r\n    function viewRoyaltyPointsOffered(address songAddress, address owner) public view returns(uint16){\r\n        require(isOwner(songAddress, owner), \"This is not an owner of the song.\");\r\n        return(songs[songAddress].owners[owner].royaltyPointsOffered);\r\n    }\r\n\r\n    function viewRoyaltyOfferedPrice(address songAddress, address owner) public view returns(uint){\r\n        require(isOwner(songAddress, owner), \"This is not an owner of the song.\");\r\n        uint priceRoyalties = songs[songAddress].owners[owner].royaltyPointsOffered * songs[songAddress].owners[owner].pricePerRoyaltyPoint;\r\n        return priceRoyalties;\r\n    }\r\n\r\n    //Checks ownership of 3rd parties and is only accessed by the contract\r\n    function isOwner(address songAddress, address caller) internal view returns(bool){ \r\n        require(isSongRegistered(songAddress), \"The song is not registered\");\r\n        if(songs[songAddress].owners[caller].owner == caller){\r\n            return true;\r\n        }\r\n        return false;\r\n    }\r\n\r\n    //checks ownership of caller, accessed by only by users\r\n    function checkOwnership(address songAddress) external view returns(bool){ \r\n        require(isSongRegistered(songAddress), \"The song is not registered\");\r\n        if(songs[songAddress].owners[msg.sender].owner == msg.sender){\r\n            return true;\r\n        }\r\n        return false;\r\n    }\r\n\r\n    function isSongRegistered(address songAddress) public view returns(bool){\r\n        if(songs[songAddress].ownersSize > 0 ){\r\n            return true;\r\n        }\r\n        else{\r\n            return false;\r\n        }\r\n    }\r\n\r\n    function checkSongBalance(address songAddress) public view returns(uint){\r\n        require(isSongRegistered(songAddress), \"The song is not registered\");\r\n        require(isOwner(songAddress, msg.sender), \"This is not an owner\");\r\n        return(songs[songAddress].balance);\r\n    }\r\n\r\n    function isListener(address songAddress) public view returns(bool){\r\n        //\"You have not bought this song yet.\"\r\n        if(songs[songAddress].authorizedListeners[msg.sender]){\r\n            return true;\r\n        }\r\n        else{\r\n            return false;\r\n        }\r\n    }\r\n\r\n    function withdraw(address songAddress) public {\r\n        require(isSongRegistered(songAddress), \"The song is not registered\");\r\n        require(isOwner(songAddress, msg.sender), \"This is not an owner of the song.\");\r\n        uint songBalance = songs[songAddress].balance;\r\n        require(songs[songAddress].balance > 0, \"There is nothing to withdraw\");\r\n        require(songs[songAddress].balance >= MAX_ROYALTY_POINTS, \"The current song's balance is too low to make a withdrawal\");\r\n        \r\n        Owner memory currentOwner = songs[songAddress].owners[msg.sender];\r\n        uint amount = (songBalance/MAX_ROYALTY_POINTS)*currentOwner.royaltyPoints;\r\n        amount += royaltiesPayable[msg.sender];\r\n        msg.sender.transfer(amount);\r\n        royaltiesPayable[msg.sender] = 0;\r\n        songs[songAddress].balance -= amount;\r\n\r\n    }\r\n}",
  "sourcePath": "C:/Users/Lopi's Acer/Documents/NYU/Academics/Senior/Agile Software/music-through-blockchain/bcContracts/contracts/songsContract.sol",
  "compiler": {
    "name": "solc",
    "version": "0.5.0+commit.1d4f565a.Emscripten.clang"
  },
  "schemaVersion": "3.0.6",
  "updatedAt": "2019-04-14T22:49:19.513Z",
  "devdoc": {
    "methods": {}
  },
  "userdoc": {
    "methods": {}
  }
}