{
  "contractName": "SongsContract",
  "abi": [
    {
      "constant": true,
      "inputs": [],
      "name": "songPrice",
      "outputs": [
        {
          "name": "",
          "type": "uint256"
        }
      ],
      "payable": false,
      "stateMutability": "view",
      "type": "function"
    },
    {
      "constant": true,
      "inputs": [
        {
          "name": "",
          "type": "address"
        }
      ],
      "name": "royaltiesPayable",
      "outputs": [
        {
          "name": "",
          "type": "uint256"
        }
      ],
      "payable": false,
      "stateMutability": "view",
      "type": "function"
    },
    {
      "constant": true,
      "inputs": [
        {
          "name": "",
          "type": "address"
        }
      ],
      "name": "songs",
      "outputs": [
        {
          "name": "wasReleased",
          "type": "bool"
        },
        {
          "name": "balance",
          "type": "uint256"
        },
        {
          "name": "creator",
          "type": "address"
        },
        {
          "name": "ownersSize",
          "type": "uint256"
        }
      ],
      "payable": false,
      "stateMutability": "view",
      "type": "function"
    },
    {
      "constant": true,
      "inputs": [],
      "name": "MAX_ROYALTY_POINTS",
      "outputs": [
        {
          "name": "",
          "type": "uint16"
        }
      ],
      "payable": false,
      "stateMutability": "view",
      "type": "function"
    },
    {
      "constant": false,
      "inputs": [
        {
          "name": "songAddress",
          "type": "address"
        }
      ],
      "name": "registerSong",
      "outputs": [
        {
          "name": "success",
          "type": "bool"
        }
      ],
      "payable": false,
      "stateMutability": "nonpayable",
      "type": "function"
    },
    {
      "constant": false,
      "inputs": [
        {
          "name": "songAddress",
          "type": "address"
        },
        {
          "name": "newOwner",
          "type": "address"
        },
        {
          "name": "royalties",
          "type": "uint16"
        }
      ],
      "name": "preregisterOwner",
      "outputs": [
        {
          "name": "success",
          "type": "bool"
        }
      ],
      "payable": false,
      "stateMutability": "nonpayable",
      "type": "function"
    },
    {
      "constant": false,
      "inputs": [
        {
          "name": "songAddress",
          "type": "address"
        }
      ],
      "name": "buy",
      "outputs": [
        {
          "name": "success",
          "type": "bool"
        }
      ],
      "payable": true,
      "stateMutability": "payable",
      "type": "function"
    },
    {
      "constant": false,
      "inputs": [
        {
          "name": "songAddress",
          "type": "address"
        },
        {
          "name": "royalties",
          "type": "uint16"
        },
        {
          "name": "newPricePerRoyaltyPoint",
          "type": "uint256"
        }
      ],
      "name": "sellRoyalties",
      "outputs": [
        {
          "name": "success",
          "type": "bool"
        }
      ],
      "payable": false,
      "stateMutability": "nonpayable",
      "type": "function"
    },
    {
      "constant": false,
      "inputs": [
        {
          "name": "songAddress",
          "type": "address"
        },
        {
          "name": "royalties",
          "type": "uint16"
        }
      ],
      "name": "withdrawOffer",
      "outputs": [
        {
          "name": "success",
          "type": "bool"
        }
      ],
      "payable": false,
      "stateMutability": "nonpayable",
      "type": "function"
    },
    {
      "constant": false,
      "inputs": [
        {
          "name": "songAddress",
          "type": "address"
        },
        {
          "name": "seller",
          "type": "address"
        }
      ],
      "name": "buyRoyalties",
      "outputs": [
        {
          "name": "success",
          "type": "bool"
        }
      ],
      "payable": true,
      "stateMutability": "payable",
      "type": "function"
    },
    {
      "constant": true,
      "inputs": [],
      "name": "viewSongPrice",
      "outputs": [
        {
          "name": "",
          "type": "uint256"
        }
      ],
      "payable": false,
      "stateMutability": "pure",
      "type": "function"
    },
    {
      "constant": true,
      "inputs": [],
      "name": "viewMaxRoyaltyPoints",
      "outputs": [
        {
          "name": "",
          "type": "uint16"
        }
      ],
      "payable": false,
      "stateMutability": "pure",
      "type": "function"
    },
    {
      "constant": true,
      "inputs": [
        {
          "name": "songAddress",
          "type": "address"
        }
      ],
      "name": "checkRoyaltyPoints",
      "outputs": [
        {
          "name": "",
          "type": "uint16"
        }
      ],
      "payable": false,
      "stateMutability": "view",
      "type": "function"
    },
    {
      "constant": true,
      "inputs": [
        {
          "name": "songAddress",
          "type": "address"
        },
        {
          "name": "owner",
          "type": "address"
        }
      ],
      "name": "viewRoyaltyPointsOffered",
      "outputs": [
        {
          "name": "",
          "type": "uint16"
        }
      ],
      "payable": false,
      "stateMutability": "view",
      "type": "function"
    },
    {
      "constant": true,
      "inputs": [
        {
          "name": "songAddress",
          "type": "address"
        },
        {
          "name": "owner",
          "type": "address"
        }
      ],
      "name": "viewRoyaltyOfferedPrice",
      "outputs": [
        {
          "name": "",
          "type": "uint256"
        }
      ],
      "payable": false,
      "stateMutability": "view",
      "type": "function"
    },
    {
      "constant": true,
      "inputs": [
        {
          "name": "songAddress",
          "type": "address"
        }
      ],
      "name": "checkOwnership",
      "outputs": [
        {
          "name": "",
          "type": "bool"
        }
      ],
      "payable": false,
      "stateMutability": "view",
      "type": "function"
    },
    {
      "constant": true,
      "inputs": [
        {
          "name": "songAddress",
          "type": "address"
        }
      ],
      "name": "isSongRegistered",
      "outputs": [
        {
          "name": "",
          "type": "bool"
        }
      ],
      "payable": false,
      "stateMutability": "view",
      "type": "function"
    },
    {
      "constant": true,
      "inputs": [
        {
          "name": "songAddress",
          "type": "address"
        }
      ],
      "name": "checkSongBalance",
      "outputs": [
        {
          "name": "",
          "type": "uint256"
        }
      ],
      "payable": false,
      "stateMutability": "view",
      "type": "function"
    },
    {
      "constant": true,
      "inputs": [
        {
          "name": "songAddress",
          "type": "address"
        }
      ],
      "name": "isListener",
      "outputs": [
        {
          "name": "",
          "type": "bool"
        }
      ],
      "payable": false,
      "stateMutability": "view",
      "type": "function"
    },
    {
      "constant": false,
      "inputs": [
        {
          "name": "songAddress",
          "type": "address"
        }
      ],
      "name": "withdraw",
      "outputs": [],
      "payable": false,
      "stateMutability": "nonpayable",
      "type": "function"
    }
  ],
  "bytecode": "0x608060405234801561001057600080fd5b5061350d806100206000396000f3fe608060405260043610610112576000357c0100000000000000000000000000000000000000000000000000000000900463ffffffff1680630274d4f3146101175780630599af65146101425780630c8b234e146101d95780630cbba9a31461024257806325ce950b146102cf57806331b2c0891461033857806333c4e11a146103a15780633b6fdd9c146103d457806347a7da911461043957806351cff8d9146104b057806365528faf146105015780636a4db6e51461056a5780637c20f5cd14610614578063864380cf1461069957806396ca53b4146106cc578063c46250d914610731578063d25b53e01461079e578063e2a941d41461081a578063efd9eff014610845578063f088d547146108c6575b600080fd5b34801561012357600080fd5b5061012c610922565b6040518082815260200191505060405180910390f35b34801561014e57600080fd5b506101bf6004803603606081101561016557600080fd5b81019080803573ffffffffffffffffffffffffffffffffffffffff169060200190929190803573ffffffffffffffffffffffffffffffffffffffff169060200190929190803561ffff16906020019092919050505061092d565b604051808215151515815260200191505060405180910390f35b3480156101e557600080fd5b50610228600480360360208110156101fc57600080fd5b81019080803573ffffffffffffffffffffffffffffffffffffffff169060200190929190505050610edd565b604051808215151515815260200191505060405180910390f35b34801561024e57600080fd5b506102b16004803603604081101561026557600080fd5b81019080803573ffffffffffffffffffffffffffffffffffffffff169060200190929190803573ffffffffffffffffffffffffffffffffffffffff169060200190929190505050611044565b604051808261ffff1661ffff16815260200191505060405180910390f35b3480156102db57600080fd5b5061031e600480360360208110156102f257600080fd5b81019080803573ffffffffffffffffffffffffffffffffffffffff169060200190929190505050611182565b604051808215151515815260200191505060405180910390f35b34801561034457600080fd5b506103876004803603602081101561035b57600080fd5b81019080803573ffffffffffffffffffffffffffffffffffffffff1690602001909291905050506111e0565b604051808215151515815260200191505060405180910390f35b3480156103ad57600080fd5b506103b6611286565b604051808261ffff1661ffff16815260200191505060405180910390f35b3480156103e057600080fd5b50610423600480360360208110156103f757600080fd5b81019080803573ffffffffffffffffffffffffffffffffffffffff169060200190929190505050611290565b6040518082815260200191505060405180910390f35b34801561044557600080fd5b506104966004803603604081101561045c57600080fd5b81019080803573ffffffffffffffffffffffffffffffffffffffff169060200190929190803561ffff1690602001909291905050506112a8565b604051808215151515815260200191505060405180910390f35b3480156104bc57600080fd5b506104ff600480360360208110156104d357600080fd5b81019080803573ffffffffffffffffffffffffffffffffffffffff16906020019092919050505061167a565b005b34801561050d57600080fd5b506105506004803603602081101561052457600080fd5b81019080803573ffffffffffffffffffffffffffffffffffffffff169060200190929190505050611bf8565b604051808215151515815260200191505060405180910390f35b34801561057657600080fd5b506105b96004803603602081101561058d57600080fd5b81019080803573ffffffffffffffffffffffffffffffffffffffff169060200190929190505050611f98565b60405180851515151581526020018481526020018373ffffffffffffffffffffffffffffffffffffffff1673ffffffffffffffffffffffffffffffffffffffff16815260200182815260200194505050505060405180910390f35b34801561062057600080fd5b506106836004803603604081101561063757600080fd5b81019080803573ffffffffffffffffffffffffffffffffffffffff169060200190929190803573ffffffffffffffffffffffffffffffffffffffff169060200190929190505050611ff5565b6040518082815260200191505060405180910390f35b3480156106a557600080fd5b506106ae6121c0565b604051808261ffff1661ffff16815260200191505060405180910390f35b3480156106d857600080fd5b5061071b600480360360208110156106ef57600080fd5b81019080803573ffffffffffffffffffffffffffffffffffffffff1690602001909291905050506121c6565b6040518082815260200191505060405180910390f35b34801561073d57600080fd5b506107806004803603602081101561075457600080fd5b81019080803573ffffffffffffffffffffffffffffffffffffffff16906020019092919050505061230c565b604051808261ffff1661ffff16815260200191505060405180910390f35b610800600480360360408110156107b457600080fd5b81019080803573ffffffffffffffffffffffffffffffffffffffff169060200190929190803573ffffffffffffffffffffffffffffffffffffffff169060200190929190505050612449565b604051808215151515815260200191505060405180910390f35b34801561082657600080fd5b5061082f612897565b6040518082815260200191505060405180910390f35b34801561085157600080fd5b506108ac6004803603606081101561086857600080fd5b81019080803573ffffffffffffffffffffffffffffffffffffffff169060200190929190803561ffff169060200190929190803590602001909291905050506128a6565b604051808215151515815260200191505060405180910390f35b610908600480360360208110156108dc57600080fd5b81019080803573ffffffffffffffffffffffffffffffffffffffff169060200190929190505050612cc4565b604051808215151515815260200191505060405180910390f35b661c6bf52634000081565b600061093884611182565b15156109ac576040517f08c379a000000000000000000000000000000000000000000000000000000000815260040180806020018281038252601a8152602001807f54686520736f6e67206973206e6f74207265676973746572656400000000000081525060200191505060405180910390fd5b6109b68433612e47565b1515610a50576040517f08c379a00000000000000000000000000000000000000000000000000000000081526004018080602001828103825260368152602001807f5468652063616c6c6572206973206e6f7420746865206f776e6572206f66207481526020017f68652063726561746f72206f662074686520736f6e670000000000000000000081525060400191505060405180910390fd5b600015156000808673ffffffffffffffffffffffffffffffffffffffff1673ffffffffffffffffffffffffffffffffffffffff16815260200190815260200160002060000160009054906101000a900460ff161515141515610b66576040517f08c379a00000000000000000000000000000000000000000000000000000000081526004018080602001828103825260518152602001807f54686520707265726567697374726174696f6e2063616e27742068617070656e81526020017f20616674657220726f79616c746965732073746172746564206265696e67207381526020017f6f6c6420746f20746865207075626c696300000000000000000000000000000081525060600191505060405180910390fd5b610b6e611286565b61ffff168261ffff1611151515610c13576040517f08c379a00000000000000000000000000000000000000000000000000000000081526004018080602001828103825260388152602001807f596f752063616e2774207472616e73666572206d6f726520726f79616c74696581526020017f73207468616e20746865206578697374696e67206f6e6573000000000000000081525060400191505060405180910390fd5b6000610c1f8533612f6f565b90508061ffff168361ffff1611151515610cc7576040517f08c379a00000000000000000000000000000000000000000000000000000000081526004018080602001828103825260378152602001807f596f752063616e2774207472616e73666572206d6f726520726f79616c74696581526020017f73207468616e20746865206f6e657320796f75206f776e00000000000000000081525060400191505060405180910390fd5b60008361ffff16111515610d69576040517f08c379a000000000000000000000000000000000000000000000000000000000815260040180806020018281038252602f8152602001807f596f75206861766520746f207472616e73666572206174206c65617374206f6e81526020017f6520726f79616c747920706f696e74000000000000000000000000000000000081525060400191505060405180910390fd5b610d7385856130ad565b50610d7e85856132f1565b1515610d8657fe5b826000808773ffffffffffffffffffffffffffffffffffffffff1673ffffffffffffffffffffffffffffffffffffffff16815260200190815260200160002060040160003373ffffffffffffffffffffffffffffffffffffffff1673ffffffffffffffffffffffffffffffffffffffff16815260200190815260200160002060000160148282829054906101000a900461ffff160392506101000a81548161ffff021916908361ffff160217905550826000808773ffffffffffffffffffffffffffffffffffffffff1673ffffffffffffffffffffffffffffffffffffffff16815260200190815260200160002060040160008673ffffffffffffffffffffffffffffffffffffffff1673ffffffffffffffffffffffffffffffffffffffff16815260200190815260200160002060000160146101000a81548161ffff021916908361ffff16021790555060019150509392505050565b6000610ee882611182565b1515610f5c576040517f08c379a000000000000000000000000000000000000000000000000000000000815260040180806020018281038252601a8152602001807f54686520736f6e67206973206e6f74207265676973746572656400000000000081525060200191505060405180910390fd5b3373ffffffffffffffffffffffffffffffffffffffff166000808473ffffffffffffffffffffffffffffffffffffffff1673ffffffffffffffffffffffffffffffffffffffff16815260200190815260200160002060040160003373ffffffffffffffffffffffffffffffffffffffff1673ffffffffffffffffffffffffffffffffffffffff16815260200190815260200160002060000160009054906101000a900473ffffffffffffffffffffffffffffffffffffffff1673ffffffffffffffffffffffffffffffffffffffff16141561103a576001905061103f565b600090505b919050565b600061105083836132f1565b15156110ea576040517f08c379a00000000000000000000000000000000000000000000000000000000081526004018080602001828103825260218152602001807f54686973206973206e6f7420616e206f776e6572206f662074686520736f6e6781526020017f2e0000000000000000000000000000000000000000000000000000000000000081525060400191505060405180910390fd5b6000808473ffffffffffffffffffffffffffffffffffffffff1673ffffffffffffffffffffffffffffffffffffffff16815260200190815260200160002060040160008373ffffffffffffffffffffffffffffffffffffffff1673ffffffffffffffffffffffffffffffffffffffff16815260200190815260200160002060000160169054906101000a900461ffff16905092915050565b6000806000808473ffffffffffffffffffffffffffffffffffffffff1673ffffffffffffffffffffffffffffffffffffffff1681526020019081526020016000206003015411156111d657600190506111db565b600090505b919050565b60008060008373ffffffffffffffffffffffffffffffffffffffff1673ffffffffffffffffffffffffffffffffffffffff16815260200190815260200160002060050160003373ffffffffffffffffffffffffffffffffffffffff1673ffffffffffffffffffffffffffffffffffffffff16815260200190815260200160002060009054906101000a900460ff161561127c5760019050611281565b600090505b919050565b6000612710905090565b60016020528060005260406000206000915090505481565b60006112b483336132f1565b1515611328576040517f08c379a00000000000000000000000000000000000000000000000000000000081526004018080602001828103825260208152602001807f54686973206973206e6f7420616e206f776e6572206f662074686520736f6e6781525060200191505060405180910390fd5b611330611286565b61ffff168261ffff16111515156113d5576040517f08c379a00000000000000000000000000000000000000000000000000000000081526004018080602001828103825260388152602001807f596f752063616e2774207769746864726177206d6f726520726f79616c74696581526020017f73207468616e20746865206578697374696e67206f6e6573000000000000000081525060400191505060405180910390fd5b60006113e18433612f6f565b90508061ffff168361ffff1611151515611489576040517f08c379a00000000000000000000000000000000000000000000000000000000081526004018080602001828103825260338152602001807f596f752063616e2774207769746864726177206d6f726520726f79616c74696581526020017f73207468616e207768617420796f75206f776e0000000000000000000000000081525060400191505060405180910390fd5b8061ffff16836000808773ffffffffffffffffffffffffffffffffffffffff1673ffffffffffffffffffffffffffffffffffffffff16815260200190815260200160002060040160003373ffffffffffffffffffffffffffffffffffffffff1673ffffffffffffffffffffffffffffffffffffffff16815260200190815260200160002060000160169054906101000a900461ffff160161ffff16111515156115c0576040517f08c379a00000000000000000000000000000000000000000000000000000000081526004018080602001828103825260378152602001807f596f752063616e2774207769746864726177206d6f726520726f79616c74696581526020017f73207468616e207768617420796f75206f66666572656400000000000000000081525060400191505060405180910390fd5b826000808673ffffffffffffffffffffffffffffffffffffffff1673ffffffffffffffffffffffffffffffffffffffff16815260200190815260200160002060040160003373ffffffffffffffffffffffffffffffffffffffff1673ffffffffffffffffffffffffffffffffffffffff16815260200190815260200160002060000160168282829054906101000a900461ffff160392506101000a81548161ffff021916908361ffff160217905550600191505092915050565b61168381611182565b15156116f7576040517f08c379a000000000000000000000000000000000000000000000000000000000815260040180806020018281038252601a8152602001807f54686520736f6e67206973206e6f74207265676973746572656400000000000081525060200191505060405180910390fd5b61170181336132f1565b151561179b576040517f08c379a00000000000000000000000000000000000000000000000000000000081526004018080602001828103825260218152602001807f54686973206973206e6f7420616e206f776e6572206f662074686520736f6e6781526020017f2e0000000000000000000000000000000000000000000000000000000000000081525060400191505060405180910390fd5b60008060008373ffffffffffffffffffffffffffffffffffffffff1673ffffffffffffffffffffffffffffffffffffffff16815260200190815260200160002060010154905060008060008473ffffffffffffffffffffffffffffffffffffffff1673ffffffffffffffffffffffffffffffffffffffff1681526020019081526020016000206001015411151561189a576040517f08c379a000000000000000000000000000000000000000000000000000000000815260040180806020018281038252601c8152602001807f5468657265206973206e6f7468696e6720746f2077697468647261770000000081525060200191505060405180910390fd5b61271061ffff166000808473ffffffffffffffffffffffffffffffffffffffff1673ffffffffffffffffffffffffffffffffffffffff168152602001908152602001600020600101541015151561197f576040517f08c379a000000000000000000000000000000000000000000000000000000000815260040180806020018281038252603a8152602001807f5468652063757272656e7420736f6e6727732062616c616e636520697320746f81526020017f6f206c6f7720746f206d616b652061207769746864726177616c00000000000081525060400191505060405180910390fd5b611987613459565b6000808473ffffffffffffffffffffffffffffffffffffffff1673ffffffffffffffffffffffffffffffffffffffff16815260200190815260200160002060040160003373ffffffffffffffffffffffffffffffffffffffff1673ffffffffffffffffffffffffffffffffffffffff168152602001908152602001600020608060405190810160405290816000820160009054906101000a900473ffffffffffffffffffffffffffffffffffffffff1673ffffffffffffffffffffffffffffffffffffffff1673ffffffffffffffffffffffffffffffffffffffff1681526020016000820160149054906101000a900461ffff1661ffff1661ffff1681526020016000820160169054906101000a900461ffff1661ffff1661ffff16815260200160018201548152505090506000816020015161ffff1661271061ffff1684811515611acf57fe5b04029050600160003373ffffffffffffffffffffffffffffffffffffffff1673ffffffffffffffffffffffffffffffffffffffff16815260200190815260200160002054810190503373ffffffffffffffffffffffffffffffffffffffff166108fc829081150290604051600060405180830381858888f19350505050158015611b5d573d6000803e3d6000fd5b506000600160003373ffffffffffffffffffffffffffffffffffffffff1673ffffffffffffffffffffffffffffffffffffffff16815260200190815260200160002081905550806000808673ffffffffffffffffffffffffffffffffffffffff1673ffffffffffffffffffffffffffffffffffffffff1681526020019081526020016000206001016000828254039250508190555050505050565b6000611c0382611182565b151515611c78576040517f08c379a000000000000000000000000000000000000000000000000000000000815260040180806020018281038252601e8152602001807f54686520736f6e6720697320616c72656164792072656769737465726564000081525060200191505060405180910390fd5b611c80613459565b6080604051908101604052803373ffffffffffffffffffffffffffffffffffffffff16815260200161271061ffff168152602001600061ffff16815260200160008152509050611cce6134a0565b608060405190810160405280600015158152602001600081526020013373ffffffffffffffffffffffffffffffffffffffff16815260200160008152509050806000808673ffffffffffffffffffffffffffffffffffffffff1673ffffffffffffffffffffffffffffffffffffffff16815260200190815260200160002060008201518160000160006101000a81548160ff0219169083151502179055506020820151816001015560408201518160020160006101000a81548173ffffffffffffffffffffffffffffffffffffffff021916908373ffffffffffffffffffffffffffffffffffffffff1602179055506060820151816003015590505060016000808673ffffffffffffffffffffffffffffffffffffffff1673ffffffffffffffffffffffffffffffffffffffff16815260200190815260200160002060030160008282540192505081905550816000808673ffffffffffffffffffffffffffffffffffffffff1673ffffffffffffffffffffffffffffffffffffffff16815260200190815260200160002060040160003373ffffffffffffffffffffffffffffffffffffffff1673ffffffffffffffffffffffffffffffffffffffff16815260200190815260200160002060008201518160000160006101000a81548173ffffffffffffffffffffffffffffffffffffffff021916908373ffffffffffffffffffffffffffffffffffffffff16021790555060208201518160000160146101000a81548161ffff021916908361ffff16021790555060408201518160000160166101000a81548161ffff021916908361ffff1602179055506060820151816001015590505060008060008673ffffffffffffffffffffffffffffffffffffffff1673ffffffffffffffffffffffffffffffffffffffff16815260200190815260200160002060000160006101000a81548160ff021916908315150217905550600192505050919050565b60006020528060005260406000206000915090508060000160009054906101000a900460ff16908060010154908060020160009054906101000a900473ffffffffffffffffffffffffffffffffffffffff16908060030154905084565b600061200183836132f1565b151561209b576040517f08c379a00000000000000000000000000000000000000000000000000000000081526004018080602001828103825260218152602001807f54686973206973206e6f7420616e206f776e6572206f662074686520736f6e6781526020017f2e0000000000000000000000000000000000000000000000000000000000000081525060400191505060405180910390fd5b60008060008573ffffffffffffffffffffffffffffffffffffffff1673ffffffffffffffffffffffffffffffffffffffff16815260200190815260200160002060040160008473ffffffffffffffffffffffffffffffffffffffff1673ffffffffffffffffffffffffffffffffffffffff168152602001908152602001600020600101546000808673ffffffffffffffffffffffffffffffffffffffff1673ffffffffffffffffffffffffffffffffffffffff16815260200190815260200160002060040160008573ffffffffffffffffffffffffffffffffffffffff1673ffffffffffffffffffffffffffffffffffffffff16815260200190815260200160002060000160169054906101000a900461ffff1661ffff160290508091505092915050565b61271081565b60006121d182611182565b1515612245576040517f08c379a000000000000000000000000000000000000000000000000000000000815260040180806020018281038252601a8152602001807f54686520736f6e67206973206e6f74207265676973746572656400000000000081525060200191505060405180910390fd5b61224f82336132f1565b15156122c3576040517f08c379a00000000000000000000000000000000000000000000000000000000081526004018080602001828103825260148152602001807f54686973206973206e6f7420616e206f776e657200000000000000000000000081525060200191505060405180910390fd5b6000808373ffffffffffffffffffffffffffffffffffffffff1673ffffffffffffffffffffffffffffffffffffffff168152602001908152602001600020600101549050919050565b600061231882336132f1565b15156123b2576040517f08c379a00000000000000000000000000000000000000000000000000000000081526004018080602001828103825260218152602001807f54686973206973206e6f7420616e206f776e6572206f662074686520736f6e6781526020017f2e0000000000000000000000000000000000000000000000000000000000000081525060400191505060405180910390fd5b6000808373ffffffffffffffffffffffffffffffffffffffff1673ffffffffffffffffffffffffffffffffffffffff16815260200190815260200160002060040160003373ffffffffffffffffffffffffffffffffffffffff1673ffffffffffffffffffffffffffffffffffffffff16815260200190815260200160002060000160149054906101000a900461ffff169050919050565b600061245583836132f1565b15156124ef576040517f08c379a00000000000000000000000000000000000000000000000000000000081526004018080602001828103825260278152602001807f546861742073656c6c6572206973206e6f7420616e206f776e6572206f66207481526020017f686520736f6e670000000000000000000000000000000000000000000000000081525060400191505060405180910390fd5b60006124fb8484611ff5565b9050803414151561250b57600080fd5b34600160008573ffffffffffffffffffffffffffffffffffffffff1673ffffffffffffffffffffffffffffffffffffffff1681526020019081526020016000206000828254019250508190555061256284336130ad565b5061256d84336132f1565b151561257557fe5b60008060008673ffffffffffffffffffffffffffffffffffffffff1673ffffffffffffffffffffffffffffffffffffffff16815260200190815260200160002060040160008573ffffffffffffffffffffffffffffffffffffffff1673ffffffffffffffffffffffffffffffffffffffff16815260200190815260200160002060000160169054906101000a900461ffff169050806000808773ffffffffffffffffffffffffffffffffffffffff1673ffffffffffffffffffffffffffffffffffffffff16815260200190815260200160002060040160003373ffffffffffffffffffffffffffffffffffffffff1673ffffffffffffffffffffffffffffffffffffffff16815260200190815260200160002060000160148282829054906101000a900461ffff160192506101000a81548161ffff021916908361ffff160217905550806000808773ffffffffffffffffffffffffffffffffffffffff1673ffffffffffffffffffffffffffffffffffffffff16815260200190815260200160002060040160008673ffffffffffffffffffffffffffffffffffffffff1673ffffffffffffffffffffffffffffffffffffffff16815260200190815260200160002060000160148282829054906101000a900461ffff160392506101000a81548161ffff021916908361ffff16021790555060008060008773ffffffffffffffffffffffffffffffffffffffff1673ffffffffffffffffffffffffffffffffffffffff16815260200190815260200160002060040160008673ffffffffffffffffffffffffffffffffffffffff1673ffffffffffffffffffffffffffffffffffffffff16815260200190815260200160002060000160166101000a81548161ffff021916908361ffff16021790555060008060008773ffffffffffffffffffffffffffffffffffffffff1673ffffffffffffffffffffffffffffffffffffffff16815260200190815260200160002060040160008673ffffffffffffffffffffffffffffffffffffffff1673ffffffffffffffffffffffffffffffffffffffff1681526020019081526020016000206001018190555060019250505092915050565b6000661c6bf526340000905090565b60006128b284336132f1565b1515612926576040517f08c379a00000000000000000000000000000000000000000000000000000000081526004018080602001828103825260208152602001807f54686973206973206e6f7420616e206f776e6572206f662074686520736f6e6781525060200191505060405180910390fd5b61292e611286565b61ffff168361ffff16111515156129d3576040517f08c379a00000000000000000000000000000000000000000000000000000000081526004018080602001828103825260348152602001807f596f752063616e27742073656c6c206d6f726520726f79616c7469657320746881526020017f616e20746865206578697374696e67206f6e657300000000000000000000000081525060400191505060405180910390fd5b60006129df8533612f6f565b90508061ffff168461ffff1611151515612a87576040517f08c379a000000000000000000000000000000000000000000000000000000000815260040180806020018281038252602f8152602001807f596f752063616e27742073656c6c206d6f726520726f79616c7469657320746881526020017f616e207768617420796f75206f776e000000000000000000000000000000000081525060400191505060405180910390fd5b60008461ffff16111515612b29576040517f08c379a000000000000000000000000000000000000000000000000000000000815260040180806020018281038252602b8152602001807f596f75206861766520746f2073656c6c206174206c65617374206f6e6520726f81526020017f79616c747920706f696e7400000000000000000000000000000000000000000081525060400191505060405180910390fd5b60016000808773ffffffffffffffffffffffffffffffffffffffff1673ffffffffffffffffffffffffffffffffffffffff16815260200190815260200160002060000160006101000a81548160ff021916908315150217905550836000808773ffffffffffffffffffffffffffffffffffffffff1673ffffffffffffffffffffffffffffffffffffffff16815260200190815260200160002060040160003373ffffffffffffffffffffffffffffffffffffffff1673ffffffffffffffffffffffffffffffffffffffff16815260200190815260200160002060000160168282829054906101000a900461ffff160192506101000a81548161ffff021916908361ffff160217905550826000808773ffffffffffffffffffffffffffffffffffffffff1673ffffffffffffffffffffffffffffffffffffffff16815260200190815260200160002060040160003373ffffffffffffffffffffffffffffffffffffffff1673ffffffffffffffffffffffffffffffffffffffff1681526020019081526020016000206001018190555060019150509392505050565b6000612ccf82611182565b1515612d43576040517f08c379a000000000000000000000000000000000000000000000000000000000815260040180806020018281038252601a8152602001807f54686520736f6e67206973206e6f74207265676973746572656400000000000081525060200191505060405180910390fd5b661c6bf52634000034141515612d5857600080fd5b346000808473ffffffffffffffffffffffffffffffffffffffff1673ffffffffffffffffffffffffffffffffffffffff1681526020019081526020016000206001016000828254019250508190555060016000808473ffffffffffffffffffffffffffffffffffffffff1673ffffffffffffffffffffffffffffffffffffffff16815260200190815260200160002060050160003373ffffffffffffffffffffffffffffffffffffffff1673ffffffffffffffffffffffffffffffffffffffff16815260200190815260200160002060006101000a81548160ff02191690831515021790555060019050919050565b6000612e5283611182565b1515612ec6576040517f08c379a000000000000000000000000000000000000000000000000000000000815260040180806020018281038252601a8152602001807f54686520736f6e67206973206e6f74207265676973746572656400000000000081525060200191505060405180910390fd5b8173ffffffffffffffffffffffffffffffffffffffff166000808573ffffffffffffffffffffffffffffffffffffffff1673ffffffffffffffffffffffffffffffffffffffff16815260200190815260200160002060020160009054906101000a900473ffffffffffffffffffffffffffffffffffffffff1673ffffffffffffffffffffffffffffffffffffffff161415612f645760019050612f69565b600090505b92915050565b6000612f7b83836132f1565b1515613015576040517f08c379a00000000000000000000000000000000000000000000000000000000081526004018080602001828103825260218152602001807f54686973206973206e6f7420616e206f776e6572206f662074686520736f6e6781526020017f2e0000000000000000000000000000000000000000000000000000000000000081525060400191505060405180910390fd5b6000808473ffffffffffffffffffffffffffffffffffffffff1673ffffffffffffffffffffffffffffffffffffffff16815260200190815260200160002060040160008373ffffffffffffffffffffffffffffffffffffffff1673ffffffffffffffffffffffffffffffffffffffff16815260200190815260200160002060000160149054906101000a900461ffff16905092915050565b60006130b883611182565b151561312c576040517f08c379a000000000000000000000000000000000000000000000000000000000815260040180806020018281038252601a8152602001807f54686520736f6e67206973206e6f74207265676973746572656400000000000081525060200191505060405180910390fd5b61313683836132f1565b15156132e757613144613459565b33816000019073ffffffffffffffffffffffffffffffffffffffff16908173ffffffffffffffffffffffffffffffffffffffff168152505060016000808673ffffffffffffffffffffffffffffffffffffffff1673ffffffffffffffffffffffffffffffffffffffff16815260200190815260200160002060030160008282540192505081905550806000808673ffffffffffffffffffffffffffffffffffffffff1673ffffffffffffffffffffffffffffffffffffffff16815260200190815260200160002060040160003373ffffffffffffffffffffffffffffffffffffffff1673ffffffffffffffffffffffffffffffffffffffff16815260200190815260200160002060008201518160000160006101000a81548173ffffffffffffffffffffffffffffffffffffffff021916908373ffffffffffffffffffffffffffffffffffffffff16021790555060208201518160000160146101000a81548161ffff021916908361ffff16021790555060408201518160000160166101000a81548161ffff021916908361ffff16021790555060608201518160010155905050505b6001905092915050565b60006132fc83611182565b1515613370576040517f08c379a000000000000000000000000000000000000000000000000000000000815260040180806020018281038252601a8152602001807f54686520736f6e67206973206e6f74207265676973746572656400000000000081525060200191505060405180910390fd5b8173ffffffffffffffffffffffffffffffffffffffff166000808573ffffffffffffffffffffffffffffffffffffffff1673ffffffffffffffffffffffffffffffffffffffff16815260200190815260200160002060040160008473ffffffffffffffffffffffffffffffffffffffff1673ffffffffffffffffffffffffffffffffffffffff16815260200190815260200160002060000160009054906101000a900473ffffffffffffffffffffffffffffffffffffffff1673ffffffffffffffffffffffffffffffffffffffff16141561344e5760019050613453565b600090505b92915050565b608060405190810160405280600073ffffffffffffffffffffffffffffffffffffffff168152602001600061ffff168152602001600061ffff168152602001600081525090565b60806040519081016040528060001515815260200160008152602001600073ffffffffffffffffffffffffffffffffffffffff16815260200160008152509056fea165627a7a723058200bcc7e86c7584d4bfa44d79387b7b5155fb07e9d91179522e8773399ddec71530029",
  "source": "pragma solidity ^0.5.0;\r\n\r\ncontract SongsContract{\r\n\r\n    struct Owner{\r\n        address owner;\r\n        uint16 royaltyPoints;\r\n        uint16 royaltyPointsOffered;\r\n        uint pricePerRoyaltyPoint;\r\n    }\r\n\r\n    struct Song {\r\n        bool wasReleased;\r\n        uint balance;\r\n        address creator;\r\n        uint ownersSize;\r\n        mapping (address => Owner) owners;\r\n        mapping (address => bool) authorizedListeners; //People who bought the song\r\n    }\r\n\r\n    uint public constant songPrice = 8000000000000000; // approximately 1 dollar represented in wei (1 eth = 10^17 wei)\r\n    uint16 public constant MAX_ROYALTY_POINTS = 10000;\r\n\r\n    mapping (address => Song) public songs ;\r\n    mapping (address => uint) public royaltiesPayable; //ether payable to royalty sellers;\r\n\r\n    function registerSong(address songAddress) public returns (bool success){\r\n        require(!isSongRegistered(songAddress), \"The song is already registered\");\r\n        Owner memory currentOwner = Owner(msg.sender, MAX_ROYALTY_POINTS,0,0);\r\n\r\n        Song memory currentSong = Song(false,0,msg.sender,0);\r\n        songs[songAddress] = currentSong;\r\n        songs[songAddress].ownersSize += 1;\r\n        songs[songAddress].owners[msg.sender] = currentOwner;\r\n        songs[songAddress].wasReleased = false;\r\n\r\n        return true;\r\n    }\r\n\r\n    function registerOwner(address songAddress, address newOwner) internal returns (bool){\r\n        require(isSongRegistered(songAddress), \"The song is not registered\");\r\n        \r\n        //check if buyer was already an owner\r\n        if(!isOwner(songAddress, newOwner)){\r\n            //not an owner\r\n            Owner memory newestOwner;\r\n            newestOwner.owner = msg.sender;\r\n            songs[songAddress].ownersSize += 1;\r\n            songs[songAddress].owners[msg.sender] = newestOwner;\r\n        }    \r\n        return true;\r\n    }\r\n\r\n    //Transfers royalty points to owner of song \r\n    function preregisterOwner(address songAddress, address newOwner, uint16 royalties) external returns (bool success){\r\n        require(isSongRegistered(songAddress), \"The song is not registered\");\r\n        require(isCreator(songAddress, msg.sender), \"The caller is not the owner of the creator of the song\");\r\n        require(songs[songAddress].wasReleased == false, \"The preregistration can't happen after royalties started being sold to the public\");\r\n        require(royalties <= viewMaxRoyaltyPoints(), \"You can't transfer more royalties than the existing ones\");\r\n        uint16 ownedRoyalties = viewOwnRoyaltyPoints(songAddress, msg.sender);\r\n        require(royalties <= ownedRoyalties, \"You can't transfer more royalties than the ones you own\");\r\n        require(royalties > 0, \"You have to transfer at least one royalty point\");\r\n\r\n        registerOwner(songAddress, newOwner);\r\n        //this should not be false at this point\r\n        assert(isOwner(songAddress, newOwner));\r\n\r\n        songs[songAddress].owners[msg.sender].royaltyPoints -= royalties;\r\n        songs[songAddress].owners[newOwner].royaltyPoints = royalties;\r\n\r\n        return true;\r\n    }\r\n\r\n    //buy song, as of the authorization to listen the to song.\r\n    function buy(address payable songAddress) public payable returns(bool success){\r\n        require(isSongRegistered(songAddress), \"The song is not registered\");\r\n        require(msg.value == songPrice);\r\n        songs[songAddress].balance += msg.value;\r\n        songs[songAddress].authorizedListeners[msg.sender] = true;\r\n        return true;\r\n    }\r\n    \r\n    //places phonogram royalties on sale\r\n    function sellRoyalties(address songAddress, uint16 royalties, uint newPricePerRoyaltyPoint) public returns (bool success){\r\n        require(isOwner(songAddress, msg.sender), \"This is not an owner of the song\");\r\n        require(royalties <= viewMaxRoyaltyPoints(), \"You can't sell more royalties than the existing ones\");\r\n        uint16 ownedRoyalties = viewOwnRoyaltyPoints(songAddress, msg.sender);\r\n        require(royalties <= ownedRoyalties, \"You can't sell more royalties than what you own\");\r\n        require(royalties > 0, \"You have to sell at least one royalty point\");\r\n        \r\n        songs[songAddress].wasReleased = true;\r\n        songs[songAddress].owners[msg.sender].royaltyPointsOffered += royalties; \r\n        songs[songAddress].owners[msg.sender].pricePerRoyaltyPoint = newPricePerRoyaltyPoint;\r\n\r\n        return true;\r\n    }\r\n\r\n    //withdraws x amount of royalty points currently on sale from being sold.\r\n    function withdrawOffer(address songAddress, uint16 royalties) public returns (bool success){\r\n        require(isOwner(songAddress, msg.sender), \"This is not an owner of the song\");\r\n        require(royalties <= viewMaxRoyaltyPoints(), \"You can't withdraw more royalties than the existing ones\");\r\n        uint16 ownedRoyalties = viewOwnRoyaltyPoints(songAddress, msg.sender);\r\n        require(royalties <= ownedRoyalties, \"You can't withdraw more royalties than what you own\");\r\n        require(songs[songAddress].owners[msg.sender].royaltyPointsOffered + royalties <= ownedRoyalties, \"You can't withdraw more royalties than what you offered\");\r\n\r\n        songs[songAddress].owners[msg.sender].royaltyPointsOffered -= royalties; \r\n\r\n        return true;\r\n    }\r\n\r\n    //this buys all the royalties offered (to keep it simple for now)\r\n    function buyRoyalties(address songAddress, address seller) public payable returns (bool success){\r\n        require(isOwner(songAddress, seller), \"That seller is not an owner of the song\");\r\n        uint royaltiesPrice = viewRoyaltyOfferedPrice(songAddress, seller);\r\n        require(msg.value == royaltiesPrice);\r\n\r\n        royaltiesPayable[seller] += msg.value;\r\n\r\n        registerOwner(songAddress, msg.sender);\r\n        //this should not be false at this point\r\n        assert(isOwner(songAddress, msg.sender));\r\n        \r\n        uint16 royaltiesOffered = songs[songAddress].owners[seller].royaltyPointsOffered;\r\n        songs[songAddress].owners[msg.sender].royaltyPoints += royaltiesOffered;\r\n        songs[songAddress].owners[seller].royaltyPoints -= royaltiesOffered;\r\n        songs[songAddress].owners[seller].royaltyPointsOffered = 0;\r\n        songs[songAddress].owners[seller].pricePerRoyaltyPoint = 0;\r\n\r\n        return true; \r\n    }\r\n    \r\n\r\n    function viewSongPrice() public pure returns(uint){\r\n        return(songPrice);\r\n    }\r\n\r\n    function viewMaxRoyaltyPoints() public pure returns(uint16){\r\n        return(MAX_ROYALTY_POINTS);\r\n    }\r\n\r\n    //Checks royalty points of 3rd parties and is only accessed by the contract\r\n    function viewOwnRoyaltyPoints(address songAddress, address caller) internal view returns(uint16){\r\n        require(isOwner(songAddress, caller), \"This is not an owner of the song.\");\r\n        return(songs[songAddress].owners[caller].royaltyPoints);\r\n    }\r\n    //checks royalty points of caller, accessed by only by users\r\n    function checkRoyaltyPoints(address songAddress) external view returns(uint16){\r\n        require(isOwner(songAddress, msg.sender), \"This is not an owner of the song.\");\r\n        return(songs[songAddress].owners[msg.sender].royaltyPoints);\r\n    }\r\n\r\n    function viewRoyaltyPointsOffered(address songAddress, address owner) public view returns(uint16){\r\n        require(isOwner(songAddress, owner), \"This is not an owner of the song.\");\r\n        return(songs[songAddress].owners[owner].royaltyPointsOffered);\r\n    }\r\n\r\n    function viewRoyaltyOfferedPrice(address songAddress, address owner) public view returns(uint){\r\n        require(isOwner(songAddress, owner), \"This is not an owner of the song.\");\r\n        uint priceRoyalties = songs[songAddress].owners[owner].royaltyPointsOffered * songs[songAddress].owners[owner].pricePerRoyaltyPoint;\r\n        return priceRoyalties;\r\n    }\r\n\r\n    //Checks ownership of 3rd parties and is only accessed by the contract\r\n    function isOwner(address songAddress, address caller) internal view returns(bool){ \r\n        require(isSongRegistered(songAddress), \"The song is not registered\");\r\n        if(songs[songAddress].owners[caller].owner == caller){\r\n            return true;\r\n        }\r\n        return false;\r\n    }\r\n\r\n    function isCreator(address songAddress, address caller) internal view returns(bool){\r\n        require(isSongRegistered(songAddress), \"The song is not registered\");\r\n        if(songs[songAddress].creator == caller){\r\n            return true;\r\n        }\r\n        return false;\r\n    }\r\n\r\n    //checks ownership of caller, accessed by only by users\r\n    function checkOwnership(address songAddress) external view returns(bool){ \r\n        require(isSongRegistered(songAddress), \"The song is not registered\");\r\n        if(songs[songAddress].owners[msg.sender].owner == msg.sender){\r\n            return true;\r\n        }\r\n        return false;\r\n    }\r\n\r\n    function isSongRegistered(address songAddress) public view returns(bool){\r\n        if(songs[songAddress].ownersSize > 0 ){\r\n            return true;\r\n        }\r\n        else{\r\n            return false;\r\n        }\r\n    }\r\n\r\n    function checkSongBalance(address songAddress) public view returns(uint){\r\n        require(isSongRegistered(songAddress), \"The song is not registered\");\r\n        require(isOwner(songAddress, msg.sender), \"This is not an owner\");\r\n        return(songs[songAddress].balance);\r\n    }\r\n\r\n    function isListener(address songAddress) public view returns(bool){\r\n        //\"You have not bought this song yet.\"\r\n        if(songs[songAddress].authorizedListeners[msg.sender]){\r\n            return true;\r\n        }\r\n        else{\r\n            return false;\r\n        }\r\n    }\r\n\r\n    function withdraw(address songAddress) public {\r\n        require(isSongRegistered(songAddress), \"The song is not registered\");\r\n        require(isOwner(songAddress, msg.sender), \"This is not an owner of the song.\");\r\n        uint songBalance = songs[songAddress].balance;\r\n        require(songs[songAddress].balance > 0, \"There is nothing to withdraw\");\r\n        require(songs[songAddress].balance >= MAX_ROYALTY_POINTS, \"The current song's balance is too low to make a withdrawal\");\r\n        \r\n        Owner memory currentOwner = songs[songAddress].owners[msg.sender];\r\n        uint amount = (songBalance/MAX_ROYALTY_POINTS)*currentOwner.royaltyPoints;\r\n        amount += royaltiesPayable[msg.sender];\r\n        msg.sender.transfer(amount);\r\n        royaltiesPayable[msg.sender] = 0;\r\n        songs[songAddress].balance -= amount;\r\n\r\n    }\r\n}",
  "sourcePath": "C:/Users/Lopi's Acer/Documents/NYU/Academics/Senior/Agile Software/music-through-blockchain/bcContracts/contracts/songsContract.sol",
  "compiler": {
    "name": "solc",
    "version": "0.5.0+commit.1d4f565a.Emscripten.clang"
  },
  "schemaVersion": "3.0.6",
  "updatedAt": "2019-04-16T14:03:22.568Z",
  "devdoc": {
    "methods": {}
  },
  "userdoc": {
    "methods": {}
  }
}